{
    "_format": "hh-sol-artifact-1",
    "contractName": "AiDaoToken",
    "sourceName": "contracts/AiDaoToken.sol",
    "abi": [
        {
            "inputs": [],
            "stateMutability": "nonpayable",
            "type": "constructor"
        },
        {
            "inputs": [],
            "name": "CheckpointUnorderedInsertion",
            "type": "error"
        },
        {
            "inputs": [],
            "name": "ECDSAInvalidSignature",
            "type": "error"
        },
        {
            "inputs": [
                {
                    "internalType": "uint256",
                    "name": "length",
                    "type": "uint256"
                }
            ],
            "name": "ECDSAInvalidSignatureLength",
            "type": "error"
        },
        {
            "inputs": [
                {
                    "internalType": "bytes32",
                    "name": "s",
                    "type": "bytes32"
                }
            ],
            "name": "ECDSAInvalidSignatureS",
            "type": "error"
        },
        {
            "inputs": [
                {
                    "internalType": "uint256",
                    "name": "increasedSupply",
                    "type": "uint256"
                },
                {
                    "internalType": "uint256",
                    "name": "cap",
                    "type": "uint256"
                }
            ],
            "name": "ERC20ExceededSafeSupply",
            "type": "error"
        },
        {
            "inputs": [
                {
                    "internalType": "address",
                    "name": "spender",
                    "type": "address"
                },
                {
                    "internalType": "uint256",
                    "name": "allowance",
                    "type": "uint256"
                },
                {
                    "internalType": "uint256",
                    "name": "needed",
                    "type": "uint256"
                }
            ],
            "name": "ERC20InsufficientAllowance",
            "type": "error"
        },
        {
            "inputs": [
                {
                    "internalType": "address",
                    "name": "sender",
                    "type": "address"
                },
                {
                    "internalType": "uint256",
                    "name": "balance",
                    "type": "uint256"
                },
                {
                    "internalType": "uint256",
                    "name": "needed",
                    "type": "uint256"
                }
            ],
            "name": "ERC20InsufficientBalance",
            "type": "error"
        },
        {
            "inputs": [
                {
                    "internalType": "address",
                    "name": "approver",
                    "type": "address"
                }
            ],
            "name": "ERC20InvalidApprover",
            "type": "error"
        },
        {
            "inputs": [
                {
                    "internalType": "address",
                    "name": "receiver",
                    "type": "address"
                }
            ],
            "name": "ERC20InvalidReceiver",
            "type": "error"
        },
        {
            "inputs": [
                {
                    "internalType": "address",
                    "name": "sender",
                    "type": "address"
                }
            ],
            "name": "ERC20InvalidSender",
            "type": "error"
        },
        {
            "inputs": [
                {
                    "internalType": "address",
                    "name": "spender",
                    "type": "address"
                }
            ],
            "name": "ERC20InvalidSpender",
            "type": "error"
        },
        {
            "inputs": [
                {
                    "internalType": "uint256",
                    "name": "deadline",
                    "type": "uint256"
                }
            ],
            "name": "ERC2612ExpiredSignature",
            "type": "error"
        },
        {
            "inputs": [
                {
                    "internalType": "address",
                    "name": "signer",
                    "type": "address"
                },
                {
                    "internalType": "address",
                    "name": "owner",
                    "type": "address"
                }
            ],
            "name": "ERC2612InvalidSigner",
            "type": "error"
        },
        {
            "inputs": [
                {
                    "internalType": "uint256",
                    "name": "timepoint",
                    "type": "uint256"
                },
                {
                    "internalType": "uint48",
                    "name": "clock",
                    "type": "uint48"
                }
            ],
            "name": "ERC5805FutureLookup",
            "type": "error"
        },
        {
            "inputs": [],
            "name": "ERC6372InconsistentClock",
            "type": "error"
        },
        {
            "inputs": [
                {
                    "internalType": "address",
                    "name": "account",
                    "type": "address"
                },
                {
                    "internalType": "uint256",
                    "name": "currentNonce",
                    "type": "uint256"
                }
            ],
            "name": "InvalidAccountNonce",
            "type": "error"
        },
        {
            "inputs": [],
            "name": "InvalidShortString",
            "type": "error"
        },
        {
            "inputs": [
                {
                    "internalType": "address",
                    "name": "owner",
                    "type": "address"
                }
            ],
            "name": "OwnableInvalidOwner",
            "type": "error"
        },
        {
            "inputs": [
                {
                    "internalType": "address",
                    "name": "account",
                    "type": "address"
                }
            ],
            "name": "OwnableUnauthorizedAccount",
            "type": "error"
        },
        {
            "inputs": [
                {
                    "internalType": "uint8",
                    "name": "bits",
                    "type": "uint8"
                },
                {
                    "internalType": "uint256",
                    "name": "value",
                    "type": "uint256"
                }
            ],
            "name": "SafeCastOverflowedUintDowncast",
            "type": "error"
        },
        {
            "inputs": [
                {
                    "internalType": "string",
                    "name": "str",
                    "type": "string"
                }
            ],
            "name": "StringTooLong",
            "type": "error"
        },
        {
            "inputs": [
                {
                    "internalType": "uint256",
                    "name": "expiry",
                    "type": "uint256"
                }
            ],
            "name": "VotesExpiredSignature",
            "type": "error"
        },
        {
            "anonymous": false,
            "inputs": [
                {
                    "indexed": true,
                    "internalType": "address",
                    "name": "owner",
                    "type": "address"
                },
                {
                    "indexed": true,
                    "internalType": "address",
                    "name": "spender",
                    "type": "address"
                },
                {
                    "indexed": false,
                    "internalType": "uint256",
                    "name": "value",
                    "type": "uint256"
                }
            ],
            "name": "Approval",
            "type": "event"
        },
        {
            "anonymous": false,
            "inputs": [
                {
                    "indexed": true,
                    "internalType": "address",
                    "name": "delegator",
                    "type": "address"
                },
                {
                    "indexed": true,
                    "internalType": "address",
                    "name": "fromDelegate",
                    "type": "address"
                },
                {
                    "indexed": true,
                    "internalType": "address",
                    "name": "toDelegate",
                    "type": "address"
                }
            ],
            "name": "DelegateChanged",
            "type": "event"
        },
        {
            "anonymous": false,
            "inputs": [
                {
                    "indexed": true,
                    "internalType": "address",
                    "name": "delegate",
                    "type": "address"
                },
                {
                    "indexed": false,
                    "internalType": "uint256",
                    "name": "previousVotes",
                    "type": "uint256"
                },
                {
                    "indexed": false,
                    "internalType": "uint256",
                    "name": "newVotes",
                    "type": "uint256"
                }
            ],
            "name": "DelegateVotesChanged",
            "type": "event"
        },
        {
            "anonymous": false,
            "inputs": [],
            "name": "EIP712DomainChanged",
            "type": "event"
        },
        {
            "anonymous": false,
            "inputs": [
                {
                    "indexed": true,
                    "internalType": "address",
                    "name": "previousOwner",
                    "type": "address"
                },
                {
                    "indexed": true,
                    "internalType": "address",
                    "name": "newOwner",
                    "type": "address"
                }
            ],
            "name": "OwnershipTransferred",
            "type": "event"
        },
        {
            "anonymous": false,
            "inputs": [
                {
                    "indexed": true,
                    "internalType": "address",
                    "name": "from",
                    "type": "address"
                },
                {
                    "indexed": true,
                    "internalType": "address",
                    "name": "to",
                    "type": "address"
                },
                {
                    "indexed": false,
                    "internalType": "uint256",
                    "name": "value",
                    "type": "uint256"
                }
            ],
            "name": "Transfer",
            "type": "event"
        },
        {
            "inputs": [],
            "name": "CLOCK_MODE",
            "outputs": [
                {
                    "internalType": "string",
                    "name": "",
                    "type": "string"
                }
            ],
            "stateMutability": "view",
            "type": "function"
        },
        {
            "inputs": [],
            "name": "DOMAIN_SEPARATOR",
            "outputs": [
                {
                    "internalType": "bytes32",
                    "name": "",
                    "type": "bytes32"
                }
            ],
            "stateMutability": "view",
            "type": "function"
        },
        {
            "inputs": [],
            "name": "MAX_SUPPLY",
            "outputs": [
                {
                    "internalType": "uint256",
                    "name": "",
                    "type": "uint256"
                }
            ],
            "stateMutability": "view",
            "type": "function"
        },
        {
            "inputs": [
                {
                    "internalType": "address",
                    "name": "owner",
                    "type": "address"
                },
                {
                    "internalType": "address",
                    "name": "spender",
                    "type": "address"
                }
            ],
            "name": "allowance",
            "outputs": [
                {
                    "internalType": "uint256",
                    "name": "",
                    "type": "uint256"
                }
            ],
            "stateMutability": "view",
            "type": "function"
        },
        {
            "inputs": [
                {
                    "internalType": "address",
                    "name": "spender",
                    "type": "address"
                },
                {
                    "internalType": "uint256",
                    "name": "value",
                    "type": "uint256"
                }
            ],
            "name": "approve",
            "outputs": [
                {
                    "internalType": "bool",
                    "name": "",
                    "type": "bool"
                }
            ],
            "stateMutability": "nonpayable",
            "type": "function"
        },
        {
            "inputs": [
                {
                    "internalType": "address",
                    "name": "account",
                    "type": "address"
                }
            ],
            "name": "balanceOf",
            "outputs": [
                {
                    "internalType": "uint256",
                    "name": "",
                    "type": "uint256"
                }
            ],
            "stateMutability": "view",
            "type": "function"
        },
        {
            "inputs": [
                {
                    "internalType": "address",
                    "name": "account",
                    "type": "address"
                },
                {
                    "internalType": "uint32",
                    "name": "pos",
                    "type": "uint32"
                }
            ],
            "name": "checkpoints",
            "outputs": [
                {
                    "components": [
                        {
                            "internalType": "uint48",
                            "name": "_key",
                            "type": "uint48"
                        },
                        {
                            "internalType": "uint208",
                            "name": "_value",
                            "type": "uint208"
                        }
                    ],
                    "internalType": "struct Checkpoints.Checkpoint208",
                    "name": "",
                    "type": "tuple"
                }
            ],
            "stateMutability": "view",
            "type": "function"
        },
        {
            "inputs": [],
            "name": "clock",
            "outputs": [
                {
                    "internalType": "uint48",
                    "name": "",
                    "type": "uint48"
                }
            ],
            "stateMutability": "view",
            "type": "function"
        },
        {
            "inputs": [],
            "name": "decimals",
            "outputs": [
                {
                    "internalType": "uint8",
                    "name": "",
                    "type": "uint8"
                }
            ],
            "stateMutability": "view",
            "type": "function"
        },
        {
            "inputs": [
                {
                    "internalType": "address",
                    "name": "delegatee",
                    "type": "address"
                }
            ],
            "name": "delegate",
            "outputs": [],
            "stateMutability": "nonpayable",
            "type": "function"
        },
        {
            "inputs": [
                {
                    "internalType": "address",
                    "name": "delegatee",
                    "type": "address"
                },
                {
                    "internalType": "uint256",
                    "name": "nonce",
                    "type": "uint256"
                },
                {
                    "internalType": "uint256",
                    "name": "expiry",
                    "type": "uint256"
                },
                {
                    "internalType": "uint8",
                    "name": "v",
                    "type": "uint8"
                },
                {
                    "internalType": "bytes32",
                    "name": "r",
                    "type": "bytes32"
                },
                {
                    "internalType": "bytes32",
                    "name": "s",
                    "type": "bytes32"
                }
            ],
            "name": "delegateBySig",
            "outputs": [],
            "stateMutability": "nonpayable",
            "type": "function"
        },
        {
            "inputs": [
                {
                    "internalType": "address",
                    "name": "account",
                    "type": "address"
                }
            ],
            "name": "delegates",
            "outputs": [
                {
                    "internalType": "address",
                    "name": "",
                    "type": "address"
                }
            ],
            "stateMutability": "view",
            "type": "function"
        },
        {
            "inputs": [],
            "name": "eip712Domain",
            "outputs": [
                {
                    "internalType": "bytes1",
                    "name": "fields",
                    "type": "bytes1"
                },
                {
                    "internalType": "string",
                    "name": "name",
                    "type": "string"
                },
                {
                    "internalType": "string",
                    "name": "version",
                    "type": "string"
                },
                {
                    "internalType": "uint256",
                    "name": "chainId",
                    "type": "uint256"
                },
                {
                    "internalType": "address",
                    "name": "verifyingContract",
                    "type": "address"
                },
                {
                    "internalType": "bytes32",
                    "name": "salt",
                    "type": "bytes32"
                },
                {
                    "internalType": "uint256[]",
                    "name": "extensions",
                    "type": "uint256[]"
                }
            ],
            "stateMutability": "view",
            "type": "function"
        },
        {
            "inputs": [
                {
                    "internalType": "uint256",
                    "name": "timepoint",
                    "type": "uint256"
                }
            ],
            "name": "getPastTotalSupply",
            "outputs": [
                {
                    "internalType": "uint256",
                    "name": "",
                    "type": "uint256"
                }
            ],
            "stateMutability": "view",
            "type": "function"
        },
        {
            "inputs": [
                {
                    "internalType": "address",
                    "name": "account",
                    "type": "address"
                },
                {
                    "internalType": "uint256",
                    "name": "timepoint",
                    "type": "uint256"
                }
            ],
            "name": "getPastVotes",
            "outputs": [
                {
                    "internalType": "uint256",
                    "name": "",
                    "type": "uint256"
                }
            ],
            "stateMutability": "view",
            "type": "function"
        },
        {
            "inputs": [
                {
                    "internalType": "address",
                    "name": "account",
                    "type": "address"
                }
            ],
            "name": "getVotes",
            "outputs": [
                {
                    "internalType": "uint256",
                    "name": "",
                    "type": "uint256"
                }
            ],
            "stateMutability": "view",
            "type": "function"
        },
        {
            "inputs": [
                {
                    "internalType": "address",
                    "name": "account",
                    "type": "address"
                },
                {
                    "internalType": "uint256",
                    "name": "value",
                    "type": "uint256"
                }
            ],
            "name": "mint",
            "outputs": [],
            "stateMutability": "nonpayable",
            "type": "function"
        },
        {
            "inputs": [],
            "name": "name",
            "outputs": [
                {
                    "internalType": "string",
                    "name": "",
                    "type": "string"
                }
            ],
            "stateMutability": "view",
            "type": "function"
        },
        {
            "inputs": [
                {
                    "internalType": "address",
                    "name": "owner",
                    "type": "address"
                }
            ],
            "name": "nonces",
            "outputs": [
                {
                    "internalType": "uint256",
                    "name": "",
                    "type": "uint256"
                }
            ],
            "stateMutability": "view",
            "type": "function"
        },
        {
            "inputs": [
                {
                    "internalType": "address",
                    "name": "account",
                    "type": "address"
                }
            ],
            "name": "numCheckpoints",
            "outputs": [
                {
                    "internalType": "uint32",
                    "name": "",
                    "type": "uint32"
                }
            ],
            "stateMutability": "view",
            "type": "function"
        },
        {
            "inputs": [],
            "name": "owner",
            "outputs": [
                {
                    "internalType": "address",
                    "name": "",
                    "type": "address"
                }
            ],
            "stateMutability": "view",
            "type": "function"
        },
        {
            "inputs": [
                {
                    "internalType": "address",
                    "name": "owner",
                    "type": "address"
                },
                {
                    "internalType": "address",
                    "name": "spender",
                    "type": "address"
                },
                {
                    "internalType": "uint256",
                    "name": "value",
                    "type": "uint256"
                },
                {
                    "internalType": "uint256",
                    "name": "deadline",
                    "type": "uint256"
                },
                {
                    "internalType": "uint8",
                    "name": "v",
                    "type": "uint8"
                },
                {
                    "internalType": "bytes32",
                    "name": "r",
                    "type": "bytes32"
                },
                {
                    "internalType": "bytes32",
                    "name": "s",
                    "type": "bytes32"
                }
            ],
            "name": "permit",
            "outputs": [],
            "stateMutability": "nonpayable",
            "type": "function"
        },
        {
            "inputs": [],
            "name": "renounceOwnership",
            "outputs": [],
            "stateMutability": "nonpayable",
            "type": "function"
        },
        {
            "inputs": [],
            "name": "symbol",
            "outputs": [
                {
                    "internalType": "string",
                    "name": "",
                    "type": "string"
                }
            ],
            "stateMutability": "view",
            "type": "function"
        },
        {
            "inputs": [],
            "name": "totalSupply",
            "outputs": [
                {
                    "internalType": "uint256",
                    "name": "",
                    "type": "uint256"
                }
            ],
            "stateMutability": "view",
            "type": "function"
        },
        {
            "inputs": [
                {
                    "internalType": "address",
                    "name": "to",
                    "type": "address"
                },
                {
                    "internalType": "uint256",
                    "name": "value",
                    "type": "uint256"
                }
            ],
            "name": "transfer",
            "outputs": [
                {
                    "internalType": "bool",
                    "name": "",
                    "type": "bool"
                }
            ],
            "stateMutability": "nonpayable",
            "type": "function"
        },
        {
            "inputs": [
                {
                    "internalType": "address",
                    "name": "from",
                    "type": "address"
                },
                {
                    "internalType": "address",
                    "name": "to",
                    "type": "address"
                },
                {
                    "internalType": "uint256",
                    "name": "value",
                    "type": "uint256"
                }
            ],
            "name": "transferFrom",
            "outputs": [
                {
                    "internalType": "bool",
                    "name": "",
                    "type": "bool"
                }
            ],
            "stateMutability": "nonpayable",
            "type": "function"
        },
        {
            "inputs": [
                {
                    "internalType": "address",
                    "name": "newOwner",
                    "type": "address"
                }
            ],
            "name": "transferOwnership",
            "outputs": [],
            "stateMutability": "nonpayable",
            "type": "function"
        }
    ],
    "bytecode": "0x6101606040523480156200001257600080fd5b50336040518060400160405280600a81526020017f416944616f546f6b656e00000000000000000000000000000000000000000000815250806040518060400160405280600181526020017f31000000000000000000000000000000000000000000000000000000000000008152506040518060400160405280600a81526020017f416944616f546f6b656e000000000000000000000000000000000000000000008152506040518060400160405280600381526020017f41445400000000000000000000000000000000000000000000000000000000008152508160039081620000fe91906200141a565b5080600490816200011091906200141a565b505050620001296005836200026d60201b90919060201c565b6101208181525050620001476006826200026d60201b90919060201c565b6101408181525050818051906020012060e08181525050808051906020012061010081815250504660a0818152505062000186620002c560201b60201c565b608081815250503073ffffffffffffffffffffffffffffffffffffffff1660c08173ffffffffffffffffffffffffffffffffffffffff1681525050505050600073ffffffffffffffffffffffffffffffffffffffff168173ffffffffffffffffffffffffffffffffffffffff1603620002395760006040517f1e4fbdf700000000000000000000000000000000000000000000000000000000815260040162000230919062001546565b60405180910390fd5b6200024a816200032260201b60201c565b50620002673369d3c21bcecceda1000000620003e860201b60201c565b62001a2a565b600060208351101562000293576200028b836200047560201b60201c565b9050620002bf565b82620002a583620004e260201b60201c565b6000019081620002b691906200141a565b5060ff60001b90505b92915050565b60007f8b73c3c69bb8fe3d512ecc4cf759cc79239f7b179b0ffacaa9a75d522b39400f60e051610100514630604051602001620003079594939291906200158f565b60405160208183030381529060405280519060200120905090565b6000600b60009054906101000a900473ffffffffffffffffffffffffffffffffffffffff16905081600b60006101000a81548173ffffffffffffffffffffffffffffffffffffffff021916908373ffffffffffffffffffffffffffffffffffffffff1602179055508173ffffffffffffffffffffffffffffffffffffffff168173ffffffffffffffffffffffffffffffffffffffff167f8be0079c531659141344cd1fd0a4f28419497f9722a3daafe3b4186f6b6457e060405160405180910390a35050565b600073ffffffffffffffffffffffffffffffffffffffff168273ffffffffffffffffffffffffffffffffffffffff16036200045d5760006040517fec442f0500000000000000000000000000000000000000000000000000000000815260040162000454919062001546565b60405180910390fd5b6200047160008383620004ec60201b60201c565b5050565b600080829050601f81511115620004c557826040517f305a27a9000000000000000000000000000000000000000000000000000000008152600401620004bc91906200167b565b60405180910390fd5b805181620004d390620016d1565b60001c1760001b915050919050565b6000819050919050565b620004ff8383836200050460201b60201c565b505050565b62000517838383620005d960201b60201c565b600073ffffffffffffffffffffffffffffffffffffffff168373ffffffffffffffffffffffffffffffffffffffff1603620005c15760006200055e6200080960201b60201c565b90506000620005726200081360201b60201c565b905080821115620005be5781816040517f1cb15d26000000000000000000000000000000000000000000000000000000008152600401620005b592919062001741565b60405180910390fd5b50505b620005d48383836200083760201b60201c565b505050565b600073ffffffffffffffffffffffffffffffffffffffff168373ffffffffffffffffffffffffffffffffffffffff16036200062f5780600260008282546200062291906200179d565b9250508190555062000705565b60008060008573ffffffffffffffffffffffffffffffffffffffff1673ffffffffffffffffffffffffffffffffffffffff16815260200190815260200160002054905081811015620006be578381836040517fe450d38c000000000000000000000000000000000000000000000000000000008152600401620006b593929190620017d8565b60405180910390fd5b8181036000808673ffffffffffffffffffffffffffffffffffffffff1673ffffffffffffffffffffffffffffffffffffffff16815260200190815260200160002081905550505b600073ffffffffffffffffffffffffffffffffffffffff168273ffffffffffffffffffffffffffffffffffffffff16036200075057806002600082825403925050819055506200079d565b806000808473ffffffffffffffffffffffffffffffffffffffff1673ffffffffffffffffffffffffffffffffffffffff168152602001908152602001600020600082825401925050819055505b8173ffffffffffffffffffffffffffffffffffffffff168373ffffffffffffffffffffffffffffffffffffffff167fddf252ad1be2c89b69c2b068fc378daa952ba7f163c4a11628f55a4df523b3ef83604051620007fc919062001815565b60405180910390a3505050565b6000600254905090565b600079ffffffffffffffffffffffffffffffffffffffffffffffffffff8016905090565b600073ffffffffffffffffffffffffffffffffffffffff168373ffffffffffffffffffffffffffffffffffffffff16036200089e576200089b600a6200093d60201b62000ec0176200088f846200095560201b60201c565b620009c660201b60201c565b50505b600073ffffffffffffffffffffffffffffffffffffffff168273ffffffffffffffffffffffffffffffffffffffff1603620009055762000902600a62000a1660201b62000ed617620008f6846200095560201b60201c565b620009c660201b60201c565b50505b620009386200091a8462000a2e60201b60201c565b6200092b8462000a2e60201b60201c565b8362000a9760201b60201c565b505050565b600081836200094d919062001858565b905092915050565b600079ffffffffffffffffffffffffffffffffffffffffffffffffffff8016821115620009be5760d0826040517f6dfcc650000000000000000000000000000000000000000000000000000000008152600401620009b5929190620018fd565b60405180910390fd5b819050919050565b60008062000a0a620009dd62000d4a60201b60201c565b620009f9620009f28862000d6160201b60201c565b868860201c565b8762000dd560201b9092919060201c565b91509150935093915050565b6000818362000a2691906200192a565b905092915050565b6000600860008373ffffffffffffffffffffffffffffffffffffffff1673ffffffffffffffffffffffffffffffffffffffff16815260200190815260200160002060009054906101000a900473ffffffffffffffffffffffffffffffffffffffff169050919050565b8173ffffffffffffffffffffffffffffffffffffffff168373ffffffffffffffffffffffffffffffffffffffff161415801562000ad45750600081115b1562000d4557600073ffffffffffffffffffffffffffffffffffffffff168373ffffffffffffffffffffffffffffffffffffffff161462000c0f5760008062000b7e600960008773ffffffffffffffffffffffffffffffffffffffff1673ffffffffffffffffffffffffffffffffffffffff16815260200190815260200160002062000a1660201b62000ed61762000b72866200095560201b60201c565b620009c660201b60201c565b79ffffffffffffffffffffffffffffffffffffffffffffffffffff16915079ffffffffffffffffffffffffffffffffffffffffffffffffffff1691508473ffffffffffffffffffffffffffffffffffffffff167fdec2bacdd2f05b59de34da9b523dff8be42e5e38e818c82fdb0bae774387a724838360405162000c0492919062001741565b60405180910390a250505b600073ffffffffffffffffffffffffffffffffffffffff168273ffffffffffffffffffffffffffffffffffffffff161462000d445760008062000cb3600960008673ffffffffffffffffffffffffffffffffffffffff1673ffffffffffffffffffffffffffffffffffffffff1681526020019081526020016000206200093d60201b62000ec01762000ca7866200095560201b60201c565b620009c660201b60201c565b79ffffffffffffffffffffffffffffffffffffffffffffffffffff16915079ffffffffffffffffffffffffffffffffffffffffffffffffffff1691508373ffffffffffffffffffffffffffffffffffffffff167fdec2bacdd2f05b59de34da9b523dff8be42e5e38e818c82fdb0bae774387a724838360405162000d3992919062001741565b60405180910390a250505b5b505050565b600062000d5c62000dfa60201b60201c565b905090565b600080826000018054905090506000811462000dca5762000d9a8360000160018362000d8e91906200197f565b62000e1260201b60201c565b60000160069054906101000a900479ffffffffffffffffffffffffffffffffffffffffffffffffffff1662000dcd565b60005b915050919050565b60008062000dee85600001858562000e2760201b60201c565b91509150935093915050565b600062000e0d436200114360201b60201c565b905090565b60008260005281602060002001905092915050565b60008060008580549050905060008111156200105357600062000e5f8760018462000e5391906200197f565b62000e1260201b60201c565b905060008160000160009054906101000a900465ffffffffffff16905060008260000160069054906101000a900479ffffffffffffffffffffffffffffffffffffffffffffffffffff1690508765ffffffffffff168265ffffffffffff16111562000ef6576040517f2520601d00000000000000000000000000000000000000000000000000000000815260040160405180910390fd5b8765ffffffffffff168265ffffffffffff160362000f6357868360000160066101000a81548179ffffffffffffffffffffffffffffffffffffffffffffffffffff021916908379ffffffffffffffffffffffffffffffffffffffffffffffffffff16021790555062001043565b8860405180604001604052808a65ffffffffffff1681526020018979ffffffffffffffffffffffffffffffffffffffffffffffffffff168152509080600181540180825580915050600190039060005260206000200160009091909190915060008201518160000160006101000a81548165ffffffffffff021916908365ffffffffffff16021790555060208201518160000160066101000a81548179ffffffffffffffffffffffffffffffffffffffffffffffffffff021916908379ffffffffffffffffffffffffffffffffffffffffffffffffffff16021790555050505b808795509550505050506200113b565b8560405180604001604052808765ffffffffffff1681526020018679ffffffffffffffffffffffffffffffffffffffffffffffffffff168152509080600181540180825580915050600190039060005260206000200160009091909190915060008201518160000160006101000a81548165ffffffffffff021916908365ffffffffffff16021790555060208201518160000160066101000a81548179ffffffffffffffffffffffffffffffffffffffffffffffffffff021916908379ffffffffffffffffffffffffffffffffffffffffffffffffffff160217905550505060008492509250505b935093915050565b600065ffffffffffff801682111562001198576030826040517f6dfcc6500000000000000000000000000000000000000000000000000000000081526004016200118f929190620019fd565b60405180910390fd5b819050919050565b600081519050919050565b7f4e487b7100000000000000000000000000000000000000000000000000000000600052604160045260246000fd5b7f4e487b7100000000000000000000000000000000000000000000000000000000600052602260045260246000fd5b600060028204905060018216806200122257607f821691505b602082108103620012385762001237620011da565b5b50919050565b60008190508160005260206000209050919050565b60006020601f8301049050919050565b600082821b905092915050565b600060088302620012a27fffffffffffffffffffffffffffffffffffffffffffffffffffffffffffffffff8262001263565b620012ae868362001263565b95508019841693508086168417925050509392505050565b6000819050919050565b6000819050919050565b6000620012fb620012f5620012ef84620012c6565b620012d0565b620012c6565b9050919050565b6000819050919050565b6200131783620012da565b6200132f620013268262001302565b84845462001270565b825550505050565b600090565b6200134662001337565b620013538184846200130c565b505050565b5b818110156200137b576200136f6000826200133c565b60018101905062001359565b5050565b601f821115620013ca5762001394816200123e565b6200139f8462001253565b81016020851015620013af578190505b620013c7620013be8562001253565b83018262001358565b50505b505050565b600082821c905092915050565b6000620013ef60001984600802620013cf565b1980831691505092915050565b60006200140a8383620013dc565b9150826002028217905092915050565b6200142582620011a0565b67ffffffffffffffff811115620014415762001440620011ab565b5b6200144d825462001209565b6200145a8282856200137f565b600060209050601f8311600181146200149257600084156200147d578287015190505b620014898582620013fc565b865550620014f9565b601f198416620014a2866200123e565b60005b82811015620014cc57848901518255600182019150602085019450602081019050620014a5565b86831015620014ec5784890151620014e8601f891682620013dc565b8355505b6001600288020188555050505b505050505050565b600073ffffffffffffffffffffffffffffffffffffffff82169050919050565b60006200152e8262001501565b9050919050565b620015408162001521565b82525050565b60006020820190506200155d600083018462001535565b92915050565b6000819050919050565b620015788162001563565b82525050565b6200158981620012c6565b82525050565b600060a082019050620015a660008301886200156d565b620015b560208301876200156d565b620015c460408301866200156d565b620015d360608301856200157e565b620015e2608083018462001535565b9695505050505050565b600082825260208201905092915050565b60005b838110156200161d57808201518184015260208101905062001600565b60008484015250505050565b6000601f19601f8301169050919050565b60006200164782620011a0565b620016538185620015ec565b935062001665818560208601620015fd565b620016708162001629565b840191505092915050565b600060208201905081810360008301526200169781846200163a565b905092915050565b600081519050919050565b6000819050602082019050919050565b6000620016c8825162001563565b80915050919050565b6000620016de826200169f565b82620016ea84620016aa565b9050620016f781620016ba565b925060208210156200173a57620017357fffffffffffffffffffffffffffffffffffffffffffffffffffffffffffffffff8360200360080262001263565b831692505b5050919050565b60006040820190506200175860008301856200157e565b6200176760208301846200157e565b9392505050565b7f4e487b7100000000000000000000000000000000000000000000000000000000600052601160045260246000fd5b6000620017aa82620012c6565b9150620017b783620012c6565b9250828201905080821115620017d257620017d16200176e565b5b92915050565b6000606082019050620017ef600083018662001535565b620017fe60208301856200157e565b6200180d60408301846200157e565b949350505050565b60006020820190506200182c60008301846200157e565b92915050565b600079ffffffffffffffffffffffffffffffffffffffffffffffffffff82169050919050565b6000620018658262001832565b9150620018728362001832565b9250828201905079ffffffffffffffffffffffffffffffffffffffffffffffffffff811115620018a757620018a66200176e565b5b92915050565b6000819050919050565b600060ff82169050919050565b6000620018e5620018df620018d984620018ad565b620012d0565b620018b7565b9050919050565b620018f781620018c4565b82525050565b6000604082019050620019146000830185620018ec565b6200192360208301846200157e565b9392505050565b6000620019378262001832565b9150620019448362001832565b9250828203905079ffffffffffffffffffffffffffffffffffffffffffffffffffff8111156200197957620019786200176e565b5b92915050565b60006200198c82620012c6565b91506200199983620012c6565b9250828203905081811115620019b457620019b36200176e565b5b92915050565b6000819050919050565b6000620019e5620019df620019d984620019ba565b620012d0565b620018b7565b9050919050565b620019f781620019c4565b82525050565b600060408201905062001a146000830185620019ec565b62001a2360208301846200157e565b9392505050565b60805160a05160c05160e051610100516101205161014051613c0b62001a85600039600061164d0152600061161201526000611a8b01526000611a6a01526000611093015260006110e9015260006111120152613c0b6000f3fe608060405234801561001057600080fd5b50600436106101c45760003560e01c8063715018a6116100f95780639ab24eb011610097578063d505accf11610071578063d505accf14610539578063dd62ed3e14610555578063f1127ed814610585578063f2fde38b146105b5576101c4565b80639ab24eb0146104bd578063a9059cbb146104ed578063c3cda5201461051d576101c4565b80638da5cb5b116100d35780638da5cb5b146104335780638e539e8c1461045157806391ddadf41461048157806395d89b411461049f576101c4565b8063715018a6146103d55780637ecebe00146103df57806384b0196e1461040f576101c4565b80633a46b1a811610166578063587cde1e11610140578063587cde1e146103295780635c19a95c146103595780636fcfff451461037557806370a08231146103a5576101c4565b80633a46b1a8146102bf57806340c10f19146102ef5780634bf5d7e91461030b576101c4565b806323b872dd116101a257806323b872dd14610235578063313ce5671461026557806332cb6b0c146102835780633644e515146102a1576101c4565b806306fdde03146101c9578063095ea7b3146101e757806318160ddd14610217575b600080fd5b6101d16105d1565b6040516101de9190612e73565b60405180910390f35b61020160048036038101906101fc9190612f2e565b610663565b60405161020e9190612f89565b60405180910390f35b61021f610686565b60405161022c9190612fb3565b60405180910390f35b61024f600480360381019061024a9190612fce565b610690565b60405161025c9190612f89565b60405180910390f35b61026d6106bf565b60405161027a919061303d565b60405180910390f35b61028b6106c8565b6040516102989190612fb3565b60405180910390f35b6102a96106d6565b6040516102b69190613071565b60405180910390f35b6102d960048036038101906102d49190612f2e565b6106e5565b6040516102e69190612fb3565b60405180910390f35b61030960048036038101906103049190612f2e565b610764565b005b610313610772565b6040516103209190612e73565b60405180910390f35b610343600480360381019061033e919061308c565b610806565b60405161035091906130c8565b60405180910390f35b610373600480360381019061036e919061308c565b61086f565b005b61038f600480360381019061038a919061308c565b610889565b60405161039c9190613102565b60405180910390f35b6103bf60048036038101906103ba919061308c565b61089b565b6040516103cc9190612fb3565b60405180910390f35b6103dd6108e3565b005b6103f960048036038101906103f4919061308c565b6108f7565b6040516104069190612fb3565b60405180910390f35b610417610909565b60405161042a9796959493929190613216565b60405180910390f35b61043b6109b3565b60405161044891906130c8565b60405180910390f35b61046b6004803603810190610466919061329a565b6109dd565b6040516104789190612fb3565b60405180910390f35b610489610a1e565b60405161049691906132e8565b60405180910390f35b6104a7610a2d565b6040516104b49190612e73565b60405180910390f35b6104d760048036038101906104d2919061308c565b610abf565b6040516104e49190612fb3565b60405180910390f35b61050760048036038101906105029190612f2e565b610b68565b6040516105149190612f89565b60405180910390f35b6105376004803603810190610532919061335b565b610b8b565b005b610553600480360381019061054e91906133e8565b610c51565b005b61056f600480360381019061056a919061348a565b610d99565b60405161057c9190612fb3565b60405180910390f35b61059f600480360381019061059a91906134f6565b610e20565b6040516105ac91906135a9565b60405180910390f35b6105cf60048036038101906105ca919061308c565b610e3a565b005b6060600380546105e0906135f3565b80601f016020809104026020016040519081016040528092919081815260200182805461060c906135f3565b80156106595780601f1061062e57610100808354040283529160200191610659565b820191906000526020600020905b81548152906001019060200180831161063c57829003601f168201915b5050505050905090565b60008061066e610eec565b905061067b818585610ef4565b600191505092915050565b6000600254905090565b60008061069b610eec565b90506106a8858285610f06565b6106b3858585610f9b565b60019150509392505050565b60006012905090565b69d3c21bcecceda100000081565b60006106e061108f565b905090565b60006107406106f383611146565b600960008673ffffffffffffffffffffffffffffffffffffffff1673ffffffffffffffffffffffffffffffffffffffff1681526020019081526020016000206111b290919063ffffffff16565b79ffffffffffffffffffffffffffffffffffffffffffffffffffff16905092915050565b61076e82826112ac565b5050565b606061077c61132e565b65ffffffffffff1661078c610a1e565b65ffffffffffff16146107cb576040517f6ff0714000000000000000000000000000000000000000000000000000000000815260040160405180910390fd5b6040518060400160405280601d81526020017f6d6f64653d626c6f636b6e756d6265722666726f6d3d64656661756c74000000815250905090565b6000600860008373ffffffffffffffffffffffffffffffffffffffff1673ffffffffffffffffffffffffffffffffffffffff16815260200190815260200160002060009054906101000a900473ffffffffffffffffffffffffffffffffffffffff169050919050565b6000610879610eec565b9050610885818361133e565b5050565b600061089482611452565b9050919050565b60008060008373ffffffffffffffffffffffffffffffffffffffff1673ffffffffffffffffffffffffffffffffffffffff168152602001908152602001600020549050919050565b6108eb6114aa565b6108f56000611531565b565b6000610902826115f7565b9050919050565b60006060806000806000606061091d611609565b610925611644565b46306000801b600067ffffffffffffffff81111561094657610945613624565b5b6040519080825280602002602001820160405280156109745781602001602082028036833780820191505090505b507f0f00000000000000000000000000000000000000000000000000000000000000959493929190965096509650965096509650965090919293949596565b6000600b60009054906101000a900473ffffffffffffffffffffffffffffffffffffffff16905090565b60006109fb6109eb83611146565b600a6111b290919063ffffffff16565b79ffffffffffffffffffffffffffffffffffffffffffffffffffff169050919050565b6000610a2861132e565b905090565b606060048054610a3c906135f3565b80601f0160208091040260200160405190810160405280929190818152602001828054610a68906135f3565b8015610ab55780601f10610a8a57610100808354040283529160200191610ab5565b820191906000526020600020905b815481529060010190602001808311610a9857829003601f168201915b5050505050905090565b6000610ac961167f565b610adb57610ad682611698565b610b61565b610b60826001606473ffffffffffffffffffffffffffffffffffffffff1663a3b1b31d6040518163ffffffff1660e01b8152600401602060405180830381865afa158015610b2d573d6000803e3d6000fd5b505050506040513d601f19601f82011682018060405250810190610b519190613668565b610b5b91906136c4565b6106e5565b5b9050919050565b600080610b73610eec565b9050610b80818585610f9b565b600191505092915050565b83421115610bd057836040517f4683af0e000000000000000000000000000000000000000000000000000000008152600401610bc79190612fb3565b60405180910390fd5b6000610c32610c2a7fe48329057bfd03d55e49b547132e39cffd9c1820ad7b9d4c5307691425d15adf898989604051602001610c0f94939291906136f8565b60405160208183030381529060405280519060200120611704565b85858561171e565b9050610c3e818761174e565b610c48818861133e565b50505050505050565b83421115610c9657836040517f62791302000000000000000000000000000000000000000000000000000000008152600401610c8d9190612fb3565b60405180910390fd5b60007f6e71edae12b1b97f4d1f60370fef10105fa2faae0126114a169c64845d6126c9888888610cc58c6117a6565b89604051602001610cdb9695949392919061373d565b6040516020818303038152906040528051906020012090506000610cfe82611704565b90506000610d0e8287878761171e565b90508973ffffffffffffffffffffffffffffffffffffffff168173ffffffffffffffffffffffffffffffffffffffff1614610d8257808a6040517f4b800e46000000000000000000000000000000000000000000000000000000008152600401610d7992919061379e565b60405180910390fd5b610d8d8a8a8a610ef4565b50505050505050505050565b6000600160008473ffffffffffffffffffffffffffffffffffffffff1673ffffffffffffffffffffffffffffffffffffffff16815260200190815260200160002060008373ffffffffffffffffffffffffffffffffffffffff1673ffffffffffffffffffffffffffffffffffffffff16815260200190815260200160002054905092915050565b610e28612da5565b610e3283836117fd565b905092915050565b610e426114aa565b600073ffffffffffffffffffffffffffffffffffffffff168173ffffffffffffffffffffffffffffffffffffffff1603610eb45760006040517f1e4fbdf7000000000000000000000000000000000000000000000000000000008152600401610eab91906130c8565b60405180910390fd5b610ebd81611531565b50565b60008183610ece91906137c7565b905092915050565b60008183610ee49190613815565b905092915050565b600033905090565b610f01838383600161185e565b505050565b6000610f128484610d99565b90507fffffffffffffffffffffffffffffffffffffffffffffffffffffffffffffffff811015610f955781811015610f85578281836040517ffb8f41b2000000000000000000000000000000000000000000000000000000008152600401610f7c93929190613863565b60405180910390fd5b610f948484848403600061185e565b5b50505050565b600073ffffffffffffffffffffffffffffffffffffffff168373ffffffffffffffffffffffffffffffffffffffff160361100d5760006040517f96c6fd1e00000000000000000000000000000000000000000000000000000000815260040161100491906130c8565b60405180910390fd5b600073ffffffffffffffffffffffffffffffffffffffff168273ffffffffffffffffffffffffffffffffffffffff160361107f5760006040517fec442f0500000000000000000000000000000000000000000000000000000000815260040161107691906130c8565b60405180910390fd5b61108a838383611a35565b505050565b60007f000000000000000000000000000000000000000000000000000000000000000073ffffffffffffffffffffffffffffffffffffffff163073ffffffffffffffffffffffffffffffffffffffff1614801561110b57507f000000000000000000000000000000000000000000000000000000000000000046145b15611138577f00000000000000000000000000000000000000000000000000000000000000009050611143565b611140611a45565b90505b90565b600080611151610a1e565b90508065ffffffffffff1683106111a15782816040517fecd3f81e00000000000000000000000000000000000000000000000000000000815260040161119892919061389a565b60405180910390fd5b6111aa83611adb565b915050919050565b60008083600001805490509050600080829050600583111561123a5760006111d984611b35565b846111e491906136c4565b90506111f38760000182611cd2565b60000160009054906101000a900465ffffffffffff1665ffffffffffff168665ffffffffffff16101561122857809150611238565b60018161123591906138c3565b92505b505b600061124b87600001878585611ce7565b90506000811461129d5761126e8760000160018361126991906136c4565b611cd2565b60000160069054906101000a900479ffffffffffffffffffffffffffffffffffffffffffffffffffff166112a0565b60005b94505050505092915050565b600073ffffffffffffffffffffffffffffffffffffffff168273ffffffffffffffffffffffffffffffffffffffff160361131e5760006040517fec442f0500000000000000000000000000000000000000000000000000000000815260040161131591906130c8565b60405180910390fd5b61132a60008383611a35565b5050565b600061133943611adb565b905090565b600061134983610806565b905081600860008573ffffffffffffffffffffffffffffffffffffffff1673ffffffffffffffffffffffffffffffffffffffff16815260200190815260200160002060006101000a81548173ffffffffffffffffffffffffffffffffffffffff021916908373ffffffffffffffffffffffffffffffffffffffff1602179055508173ffffffffffffffffffffffffffffffffffffffff168173ffffffffffffffffffffffffffffffffffffffff168473ffffffffffffffffffffffffffffffffffffffff167f3134e8a2e6d97e929a7e54011ea5485d7d196dd5f0ba4d4ef95803e8e3fc257f60405160405180910390a461144d818361144886611d60565b611d72565b505050565b60006114a361149e600960008573ffffffffffffffffffffffffffffffffffffffff1673ffffffffffffffffffffffffffffffffffffffff168152602001908152602001600020611feb565b611ffc565b9050919050565b6114b2610eec565b73ffffffffffffffffffffffffffffffffffffffff166114d06109b3565b73ffffffffffffffffffffffffffffffffffffffff161461152f576114f3610eec565b6040517f118cdaa700000000000000000000000000000000000000000000000000000000815260040161152691906130c8565b60405180910390fd5b565b6000600b60009054906101000a900473ffffffffffffffffffffffffffffffffffffffff16905081600b60006101000a81548173ffffffffffffffffffffffffffffffffffffffff021916908373ffffffffffffffffffffffffffffffffffffffff1602179055508173ffffffffffffffffffffffffffffffffffffffff168173ffffffffffffffffffffffffffffffffffffffff167f8be0079c531659141344cd1fd0a4f28419497f9722a3daafe3b4186f6b6457e060405160405180910390a35050565b600061160282612054565b9050919050565b606061163f60057f000000000000000000000000000000000000000000000000000000000000000061209d90919063ffffffff16565b905090565b606061167a60067f000000000000000000000000000000000000000000000000000000000000000061209d90919063ffffffff16565b905090565b600061a4b1461480611693575062066eed46145b905090565b60006116e1600960008473ffffffffffffffffffffffffffffffffffffffff1673ffffffffffffffffffffffffffffffffffffffff16815260200190815260200160002061214d565b79ffffffffffffffffffffffffffffffffffffffffffffffffffff169050919050565b600061171761171161108f565b836121b5565b9050919050565b600080600080611730888888886121f6565b92509250925061174082826122ea565b829350505050949350505050565b6000611759836117a6565b90508082146117a15782816040517f752d88c00000000000000000000000000000000000000000000000000000000081526004016117989291906138f7565b60405180910390fd5b505050565b6000600760008373ffffffffffffffffffffffffffffffffffffffff1673ffffffffffffffffffffffffffffffffffffffff1681526020019081526020016000206000815480929190600101919050559050919050565b611805612da5565b61185682600960008673ffffffffffffffffffffffffffffffffffffffff1673ffffffffffffffffffffffffffffffffffffffff16815260200190815260200160002061244e90919063ffffffff16565b905092915050565b600073ffffffffffffffffffffffffffffffffffffffff168473ffffffffffffffffffffffffffffffffffffffff16036118d05760006040517fe602df050000000000000000000000000000000000000000000000000000000081526004016118c791906130c8565b60405180910390fd5b600073ffffffffffffffffffffffffffffffffffffffff168373ffffffffffffffffffffffffffffffffffffffff16036119425760006040517f94280d6200000000000000000000000000000000000000000000000000000000815260040161193991906130c8565b60405180910390fd5b81600160008673ffffffffffffffffffffffffffffffffffffffff1673ffffffffffffffffffffffffffffffffffffffff16815260200190815260200160002060008573ffffffffffffffffffffffffffffffffffffffff1673ffffffffffffffffffffffffffffffffffffffff168152602001908152602001600020819055508015611a2f578273ffffffffffffffffffffffffffffffffffffffff168473ffffffffffffffffffffffffffffffffffffffff167f8c5be1e5ebec7d5bd14f71427d1e84f3dd0314c0f7b2291e5b200ac8c7c3b92584604051611a269190612fb3565b60405180910390a35b50505050565b611a40838383612523565b505050565b60007f8b73c3c69bb8fe3d512ecc4cf759cc79239f7b179b0ffacaa9a75d522b39400f7f00000000000000000000000000000000000000000000000000000000000000007f00000000000000000000000000000000000000000000000000000000000000004630604051602001611ac0959493929190613920565b60405160208183030381529060405280519060200120905090565b600065ffffffffffff8016821115611b2d576030826040517f6dfcc650000000000000000000000000000000000000000000000000000000008152600401611b249291906139b8565b60405180910390fd5b819050919050565b600060018211611b4757819050611ccd565b60008290506000600190507001000000000000000000000000000000008210611b7957608082901c9150604081901b90505b680100000000000000008210611b9857604082901c9150602081901b90505b6401000000008210611bb357602082901c9150601081901b90505b620100008210611bcc57601082901c9150600881901b90505b6101008210611be457600882901c9150600481901b90505b60108210611bfb57600482901c9150600281901b90505b60048210611c0b57600181901b90505b600181600302901c90506001818581611c2757611c266139e1565b5b048201901c90506001818581611c4057611c3f6139e1565b5b048201901c90506001818581611c5957611c586139e1565b5b048201901c90506001818581611c7257611c716139e1565b5b048201901c90506001818581611c8b57611c8a6139e1565b5b048201901c90506001818581611ca457611ca36139e1565b5b048201901c9050611cc6818581611cbe57611cbd6139e1565b5b0482116125d4565b8103925050505b919050565b60008260005281602060002001905092915050565b60005b81831015611d55576000611cfe84846125e0565b90508465ffffffffffff16611d138783611cd2565b60000160009054906101000a900465ffffffffffff1665ffffffffffff161115611d3f57809250611d4f565b600181611d4c91906138c3565b93505b50611cea565b819050949350505050565b6000611d6b8261089b565b9050919050565b8173ffffffffffffffffffffffffffffffffffffffff168373ffffffffffffffffffffffffffffffffffffffff1614158015611dae5750600081115b15611fe657600073ffffffffffffffffffffffffffffffffffffffff168373ffffffffffffffffffffffffffffffffffffffff1614611ecc57600080611e3d600960008773ffffffffffffffffffffffffffffffffffffffff1673ffffffffffffffffffffffffffffffffffffffff168152602001908152602001600020610ed6611e3886612606565b612674565b79ffffffffffffffffffffffffffffffffffffffffffffffffffff16915079ffffffffffffffffffffffffffffffffffffffffffffffffffff1691508473ffffffffffffffffffffffffffffffffffffffff167fdec2bacdd2f05b59de34da9b523dff8be42e5e38e818c82fdb0bae774387a7248383604051611ec1929190613a10565b60405180910390a250505b600073ffffffffffffffffffffffffffffffffffffffff168273ffffffffffffffffffffffffffffffffffffffff1614611fe557600080611f56600960008673ffffffffffffffffffffffffffffffffffffffff1673ffffffffffffffffffffffffffffffffffffffff168152602001908152602001600020610ec0611f5186612606565b612674565b79ffffffffffffffffffffffffffffffffffffffffffffffffffff16915079ffffffffffffffffffffffffffffffffffffffffffffffffffff1691508373ffffffffffffffffffffffffffffffffffffffff167fdec2bacdd2f05b59de34da9b523dff8be42e5e38e818c82fdb0bae774387a7248383604051611fda929190613a10565b60405180910390a250505b5b505050565b600081600001805490509050919050565b600063ffffffff801682111561204c576020826040517f6dfcc650000000000000000000000000000000000000000000000000000000008152600401612043929190613a74565b60405180910390fd5b819050919050565b6000600760008373ffffffffffffffffffffffffffffffffffffffff1673ffffffffffffffffffffffffffffffffffffffff168152602001908152602001600020549050919050565b606060ff60001b83146120ba576120b3836126b4565b9050612147565b8180546120c6906135f3565b80601f01602080910402602001604051908101604052809291908181526020018280546120f2906135f3565b801561213f5780601f106121145761010080835404028352916020019161213f565b820191906000526020600020905b81548152906001019060200180831161212257829003601f168201915b505050505090505b92915050565b60008082600001805490509050600081146121aa5761217b8360000160018361217691906136c4565b611cd2565b60000160069054906101000a900479ffffffffffffffffffffffffffffffffffffffffffffffffffff166121ad565b60005b915050919050565b60006040517f190100000000000000000000000000000000000000000000000000000000000081528360028201528260228201526042812091505092915050565b60008060007f7fffffffffffffffffffffffffffffff5d576e7357a4501ddfe92f46681b20a08460001c11156122365760006003859250925092506122e0565b60006001888888886040516000815260200160405260405161225b9493929190613a9d565b6020604051602081039080840390855afa15801561227d573d6000803e3d6000fd5b505050602060405103519050600073ffffffffffffffffffffffffffffffffffffffff168173ffffffffffffffffffffffffffffffffffffffff16036122d157600060016000801b935093509350506122e0565b8060008060001b935093509350505b9450945094915050565b600060038111156122fe576122fd613ae2565b5b82600381111561231157612310613ae2565b5b031561244a576001600381111561232b5761232a613ae2565b5b82600381111561233e5761233d613ae2565b5b03612375576040517ff645eedf00000000000000000000000000000000000000000000000000000000815260040160405180910390fd5b6002600381111561238957612388613ae2565b5b82600381111561239c5761239b613ae2565b5b036123e1578060001c6040517ffce698f70000000000000000000000000000000000000000000000000000000081526004016123d89190612fb3565b60405180910390fd5b6003808111156123f4576123f3613ae2565b5b82600381111561240757612406613ae2565b5b0361244957806040517fd78bce0c0000000000000000000000000000000000000000000000000000000081526004016124409190613071565b60405180910390fd5b5b5050565b612456612da5565b826000018263ffffffff168154811061247257612471613b11565b5b906000526020600020016040518060400160405290816000820160009054906101000a900465ffffffffffff1665ffffffffffff1665ffffffffffff1681526020016000820160069054906101000a900479ffffffffffffffffffffffffffffffffffffffffffffffffffff1679ffffffffffffffffffffffffffffffffffffffffffffffffffff1679ffffffffffffffffffffffffffffffffffffffffffffffffffff1681525050905092915050565b61252e838383612728565b600073ffffffffffffffffffffffffffffffffffffffff168373ffffffffffffffffffffffffffffffffffffffff16036125c457600061256c610686565b9050600061257861294d565b9050808211156125c15781816040517f1cb15d260000000000000000000000000000000000000000000000000000000081526004016125b8929190613a10565b60405180910390fd5b50505b6125cf838383612971565b505050565b60008115159050919050565b600060028284186125f19190613b40565b8284166125fe91906138c3565b905092915050565b600079ffffffffffffffffffffffffffffffffffffffffffffffffffff801682111561266c5760d0826040517f6dfcc650000000000000000000000000000000000000000000000000000000008152600401612663929190613bac565b60405180910390fd5b819050919050565b6000806126a8612682610a1e565b61269861268e8861214d565b868863ffffffff16565b87612a2b9092919063ffffffff16565b91509150935093915050565b606060006126c183612a48565b90506000602067ffffffffffffffff8111156126e0576126df613624565b5b6040519080825280601f01601f1916602001820160405280156127125781602001600182028036833780820191505090505b5090508181528360208201528092505050919050565b600073ffffffffffffffffffffffffffffffffffffffff168373ffffffffffffffffffffffffffffffffffffffff160361277a57806002600082825461276e91906138c3565b9250508190555061284d565b60008060008573ffffffffffffffffffffffffffffffffffffffff1673ffffffffffffffffffffffffffffffffffffffff16815260200190815260200160002054905081811015612806578381836040517fe450d38c0000000000000000000000000000000000000000000000000000000081526004016127fd93929190613863565b60405180910390fd5b8181036000808673ffffffffffffffffffffffffffffffffffffffff1673ffffffffffffffffffffffffffffffffffffffff16815260200190815260200160002081905550505b600073ffffffffffffffffffffffffffffffffffffffff168273ffffffffffffffffffffffffffffffffffffffff160361289657806002600082825403925050819055506128e3565b806000808473ffffffffffffffffffffffffffffffffffffffff1673ffffffffffffffffffffffffffffffffffffffff168152602001908152602001600020600082825401925050819055505b8173ffffffffffffffffffffffffffffffffffffffff168373ffffffffffffffffffffffffffffffffffffffff167fddf252ad1be2c89b69c2b068fc378daa952ba7f163c4a11628f55a4df523b3ef836040516129409190612fb3565b60405180910390a3505050565b600079ffffffffffffffffffffffffffffffffffffffffffffffffffff8016905090565b600073ffffffffffffffffffffffffffffffffffffffff168373ffffffffffffffffffffffffffffffffffffffff16036129be576129bb600a610ec06129b684612606565b612674565b50505b600073ffffffffffffffffffffffffffffffffffffffff168273ffffffffffffffffffffffffffffffffffffffff1603612a0b57612a08600a610ed6612a0384612606565b612674565b50505b612a26612a1784610806565b612a2084610806565b83611d72565b505050565b600080612a3c856000018585612a98565b91509150935093915050565b60008060ff8360001c169050601f811115612a8f576040517fb3512b0c00000000000000000000000000000000000000000000000000000000815260040160405180910390fd5b80915050919050565b6000806000858054905090506000811115612cb5576000612ac587600184612ac091906136c4565b611cd2565b905060008160000160009054906101000a900465ffffffffffff16905060008260000160069054906101000a900479ffffffffffffffffffffffffffffffffffffffffffffffffffff1690508765ffffffffffff168265ffffffffffff161115612b5b576040517f2520601d00000000000000000000000000000000000000000000000000000000815260040160405180910390fd5b8765ffffffffffff168265ffffffffffff1603612bc657868360000160066101000a81548179ffffffffffffffffffffffffffffffffffffffffffffffffffff021916908379ffffffffffffffffffffffffffffffffffffffffffffffffffff160217905550612ca6565b8860405180604001604052808a65ffffffffffff1681526020018979ffffffffffffffffffffffffffffffffffffffffffffffffffff168152509080600181540180825580915050600190039060005260206000200160009091909190915060008201518160000160006101000a81548165ffffffffffff021916908365ffffffffffff16021790555060208201518160000160066101000a81548179ffffffffffffffffffffffffffffffffffffffffffffffffffff021916908379ffffffffffffffffffffffffffffffffffffffffffffffffffff16021790555050505b80879550955050505050612d9d565b8560405180604001604052808765ffffffffffff1681526020018679ffffffffffffffffffffffffffffffffffffffffffffffffffff168152509080600181540180825580915050600190039060005260206000200160009091909190915060008201518160000160006101000a81548165ffffffffffff021916908365ffffffffffff16021790555060208201518160000160066101000a81548179ffffffffffffffffffffffffffffffffffffffffffffffffffff021916908379ffffffffffffffffffffffffffffffffffffffffffffffffffff160217905550505060008492509250505b935093915050565b6040518060400160405280600065ffffffffffff168152602001600079ffffffffffffffffffffffffffffffffffffffffffffffffffff1681525090565b600081519050919050565b600082825260208201905092915050565b60005b83811015612e1d578082015181840152602081019050612e02565b60008484015250505050565b6000601f19601f8301169050919050565b6000612e4582612de3565b612e4f8185612dee565b9350612e5f818560208601612dff565b612e6881612e29565b840191505092915050565b60006020820190508181036000830152612e8d8184612e3a565b905092915050565b600080fd5b600073ffffffffffffffffffffffffffffffffffffffff82169050919050565b6000612ec582612e9a565b9050919050565b612ed581612eba565b8114612ee057600080fd5b50565b600081359050612ef281612ecc565b92915050565b6000819050919050565b612f0b81612ef8565b8114612f1657600080fd5b50565b600081359050612f2881612f02565b92915050565b60008060408385031215612f4557612f44612e95565b5b6000612f5385828601612ee3565b9250506020612f6485828601612f19565b9150509250929050565b60008115159050919050565b612f8381612f6e565b82525050565b6000602082019050612f9e6000830184612f7a565b92915050565b612fad81612ef8565b82525050565b6000602082019050612fc86000830184612fa4565b92915050565b600080600060608486031215612fe757612fe6612e95565b5b6000612ff586828701612ee3565b935050602061300686828701612ee3565b925050604061301786828701612f19565b9150509250925092565b600060ff82169050919050565b61303781613021565b82525050565b6000602082019050613052600083018461302e565b92915050565b6000819050919050565b61306b81613058565b82525050565b60006020820190506130866000830184613062565b92915050565b6000602082840312156130a2576130a1612e95565b5b60006130b084828501612ee3565b91505092915050565b6130c281612eba565b82525050565b60006020820190506130dd60008301846130b9565b92915050565b600063ffffffff82169050919050565b6130fc816130e3565b82525050565b600060208201905061311760008301846130f3565b92915050565b60007fff0000000000000000000000000000000000000000000000000000000000000082169050919050565b6131528161311d565b82525050565b600081519050919050565b600082825260208201905092915050565b6000819050602082019050919050565b61318d81612ef8565b82525050565b600061319f8383613184565b60208301905092915050565b6000602082019050919050565b60006131c382613158565b6131cd8185613163565b93506131d883613174565b8060005b838110156132095781516131f08882613193565b97506131fb836131ab565b9250506001810190506131dc565b5085935050505092915050565b600060e08201905061322b600083018a613149565b818103602083015261323d8189612e3a565b905081810360408301526132518188612e3a565b90506132606060830187612fa4565b61326d60808301866130b9565b61327a60a0830185613062565b81810360c083015261328c81846131b8565b905098975050505050505050565b6000602082840312156132b0576132af612e95565b5b60006132be84828501612f19565b91505092915050565b600065ffffffffffff82169050919050565b6132e2816132c7565b82525050565b60006020820190506132fd60008301846132d9565b92915050565b61330c81613021565b811461331757600080fd5b50565b60008135905061332981613303565b92915050565b61333881613058565b811461334357600080fd5b50565b6000813590506133558161332f565b92915050565b60008060008060008060c0878903121561337857613377612e95565b5b600061338689828a01612ee3565b965050602061339789828a01612f19565b95505060406133a889828a01612f19565b94505060606133b989828a0161331a565b93505060806133ca89828a01613346565b92505060a06133db89828a01613346565b9150509295509295509295565b600080600080600080600060e0888a03121561340757613406612e95565b5b60006134158a828b01612ee3565b97505060206134268a828b01612ee3565b96505060406134378a828b01612f19565b95505060606134488a828b01612f19565b94505060806134598a828b0161331a565b93505060a061346a8a828b01613346565b92505060c061347b8a828b01613346565b91505092959891949750929550565b600080604083850312156134a1576134a0612e95565b5b60006134af85828601612ee3565b92505060206134c085828601612ee3565b9150509250929050565b6134d3816130e3565b81146134de57600080fd5b50565b6000813590506134f0816134ca565b92915050565b6000806040838503121561350d5761350c612e95565b5b600061351b85828601612ee3565b925050602061352c858286016134e1565b9150509250929050565b61353f816132c7565b82525050565b600079ffffffffffffffffffffffffffffffffffffffffffffffffffff82169050919050565b61357481613545565b82525050565b6040820160008201516135906000850182613536565b5060208201516135a3602085018261356b565b50505050565b60006040820190506135be600083018461357a565b92915050565b7f4e487b7100000000000000000000000000000000000000000000000000000000600052602260045260246000fd5b6000600282049050600182168061360b57607f821691505b60208210810361361e5761361d6135c4565b5b50919050565b7f4e487b7100000000000000000000000000000000000000000000000000000000600052604160045260246000fd5b60008151905061366281612f02565b92915050565b60006020828403121561367e5761367d612e95565b5b600061368c84828501613653565b91505092915050565b7f4e487b7100000000000000000000000000000000000000000000000000000000600052601160045260246000fd5b60006136cf82612ef8565b91506136da83612ef8565b92508282039050818111156136f2576136f1613695565b5b92915050565b600060808201905061370d6000830187613062565b61371a60208301866130b9565b6137276040830185612fa4565b6137346060830184612fa4565b95945050505050565b600060c0820190506137526000830189613062565b61375f60208301886130b9565b61376c60408301876130b9565b6137796060830186612fa4565b6137866080830185612fa4565b61379360a0830184612fa4565b979650505050505050565b60006040820190506137b360008301856130b9565b6137c060208301846130b9565b9392505050565b60006137d282613545565b91506137dd83613545565b9250828201905079ffffffffffffffffffffffffffffffffffffffffffffffffffff81111561380f5761380e613695565b5b92915050565b600061382082613545565b915061382b83613545565b9250828203905079ffffffffffffffffffffffffffffffffffffffffffffffffffff81111561385d5761385c613695565b5b92915050565b600060608201905061387860008301866130b9565b6138856020830185612fa4565b6138926040830184612fa4565b949350505050565b60006040820190506138af6000830185612fa4565b6138bc60208301846132d9565b9392505050565b60006138ce82612ef8565b91506138d983612ef8565b92508282019050808211156138f1576138f0613695565b5b92915050565b600060408201905061390c60008301856130b9565b6139196020830184612fa4565b9392505050565b600060a0820190506139356000830188613062565b6139426020830187613062565b61394f6040830186613062565b61395c6060830185612fa4565b61396960808301846130b9565b9695505050505050565b6000819050919050565b6000819050919050565b60006139a261399d61399884613973565b61397d565b613021565b9050919050565b6139b281613987565b82525050565b60006040820190506139cd60008301856139a9565b6139da6020830184612fa4565b9392505050565b7f4e487b7100000000000000000000000000000000000000000000000000000000600052601260045260246000fd5b6000604082019050613a256000830185612fa4565b613a326020830184612fa4565b9392505050565b6000819050919050565b6000613a5e613a59613a5484613a39565b61397d565b613021565b9050919050565b613a6e81613a43565b82525050565b6000604082019050613a896000830185613a65565b613a966020830184612fa4565b9392505050565b6000608082019050613ab26000830187613062565b613abf602083018661302e565b613acc6040830185613062565b613ad96060830184613062565b95945050505050565b7f4e487b7100000000000000000000000000000000000000000000000000000000600052602160045260246000fd5b7f4e487b7100000000000000000000000000000000000000000000000000000000600052603260045260246000fd5b6000613b4b82612ef8565b9150613b5683612ef8565b925082613b6657613b656139e1565b5b828204905092915050565b6000819050919050565b6000613b96613b91613b8c84613b71565b61397d565b613021565b9050919050565b613ba681613b7b565b82525050565b6000604082019050613bc16000830185613b9d565b613bce6020830184612fa4565b939250505056fea26469706673582212209adb6eec2c6230f7b6ca642308ca2850c13c56fc8af8a04889fa01f59b71619e64736f6c63430008140033",
    "linkReferences": {},
    "deployedLinkReferences": {}
}