{
    "_format": "hh-sol-artifact-1",
    "contractName": "AiDaoGovernor",
    "sourceName": "contracts/AiDaoGovernor.sol",
    "abi": [
        {
            "inputs": [],
            "name": "CheckpointUnorderedInsertion",
            "type": "error"
        },
        {
            "inputs": [],
            "name": "FailedCall",
            "type": "error"
        },
        {
            "inputs": [
                {
                    "internalType": "address",
                    "name": "voter",
                    "type": "address"
                }
            ],
            "name": "GovernorAlreadyCastVote",
            "type": "error"
        },
        {
            "inputs": [
                {
                    "internalType": "uint256",
                    "name": "proposalId",
                    "type": "uint256"
                }
            ],
            "name": "GovernorAlreadyQueuedProposal",
            "type": "error"
        },
        {
            "inputs": [],
            "name": "GovernorDisabledDeposit",
            "type": "error"
        },
        {
            "inputs": [
                {
                    "internalType": "address",
                    "name": "proposer",
                    "type": "address"
                },
                {
                    "internalType": "uint256",
                    "name": "votes",
                    "type": "uint256"
                },
                {
                    "internalType": "uint256",
                    "name": "threshold",
                    "type": "uint256"
                }
            ],
            "name": "GovernorInsufficientProposerVotes",
            "type": "error"
        },
        {
            "inputs": [
                {
                    "internalType": "uint256",
                    "name": "targets",
                    "type": "uint256"
                },
                {
                    "internalType": "uint256",
                    "name": "calldatas",
                    "type": "uint256"
                },
                {
                    "internalType": "uint256",
                    "name": "values",
                    "type": "uint256"
                }
            ],
            "name": "GovernorInvalidProposalLength",
            "type": "error"
        },
        {
            "inputs": [
                {
                    "internalType": "uint256",
                    "name": "quorumNumerator",
                    "type": "uint256"
                },
                {
                    "internalType": "uint256",
                    "name": "quorumDenominator",
                    "type": "uint256"
                }
            ],
            "name": "GovernorInvalidQuorumFraction",
            "type": "error"
        },
        {
            "inputs": [
                {
                    "internalType": "address",
                    "name": "voter",
                    "type": "address"
                }
            ],
            "name": "GovernorInvalidSignature",
            "type": "error"
        },
        {
            "inputs": [],
            "name": "GovernorInvalidVoteParams",
            "type": "error"
        },
        {
            "inputs": [],
            "name": "GovernorInvalidVoteType",
            "type": "error"
        },
        {
            "inputs": [
                {
                    "internalType": "uint256",
                    "name": "votingPeriod",
                    "type": "uint256"
                }
            ],
            "name": "GovernorInvalidVotingPeriod",
            "type": "error"
        },
        {
            "inputs": [
                {
                    "internalType": "uint256",
                    "name": "proposalId",
                    "type": "uint256"
                }
            ],
            "name": "GovernorNonexistentProposal",
            "type": "error"
        },
        {
            "inputs": [
                {
                    "internalType": "uint256",
                    "name": "proposalId",
                    "type": "uint256"
                }
            ],
            "name": "GovernorNotQueuedProposal",
            "type": "error"
        },
        {
            "inputs": [
                {
                    "internalType": "address",
                    "name": "account",
                    "type": "address"
                }
            ],
            "name": "GovernorOnlyExecutor",
            "type": "error"
        },
        {
            "inputs": [
                {
                    "internalType": "address",
                    "name": "account",
                    "type": "address"
                }
            ],
            "name": "GovernorOnlyProposer",
            "type": "error"
        },
        {
            "inputs": [],
            "name": "GovernorQueueNotImplemented",
            "type": "error"
        },
        {
            "inputs": [
                {
                    "internalType": "address",
                    "name": "proposer",
                    "type": "address"
                }
            ],
            "name": "GovernorRestrictedProposer",
            "type": "error"
        },
        {
            "inputs": [
                {
                    "internalType": "uint256",
                    "name": "proposalId",
                    "type": "uint256"
                },
                {
                    "internalType": "enum IGovernor.ProposalState",
                    "name": "current",
                    "type": "uint8"
                },
                {
                    "internalType": "bytes32",
                    "name": "expectedStates",
                    "type": "bytes32"
                }
            ],
            "name": "GovernorUnexpectedProposalState",
            "type": "error"
        },
        {
            "inputs": [
                {
                    "internalType": "address",
                    "name": "account",
                    "type": "address"
                },
                {
                    "internalType": "uint256",
                    "name": "currentNonce",
                    "type": "uint256"
                }
            ],
            "name": "InvalidAccountNonce",
            "type": "error"
        },
        {
            "inputs": [],
            "name": "InvalidInitialization",
            "type": "error"
        },
        {
            "inputs": [],
            "name": "NotInitializing",
            "type": "error"
        },
        {
            "inputs": [
                {
                    "internalType": "uint8",
                    "name": "bits",
                    "type": "uint8"
                },
                {
                    "internalType": "uint256",
                    "name": "value",
                    "type": "uint256"
                }
            ],
            "name": "SafeCastOverflowedUintDowncast",
            "type": "error"
        },
        {
            "anonymous": false,
            "inputs": [],
            "name": "EIP712DomainChanged",
            "type": "event"
        },
        {
            "anonymous": false,
            "inputs": [
                {
                    "indexed": false,
                    "internalType": "uint64",
                    "name": "version",
                    "type": "uint64"
                }
            ],
            "name": "Initialized",
            "type": "event"
        },
        {
            "anonymous": false,
            "inputs": [
                {
                    "indexed": false,
                    "internalType": "uint256",
                    "name": "proposalId",
                    "type": "uint256"
                }
            ],
            "name": "ProposalCanceled",
            "type": "event"
        },
        {
            "anonymous": false,
            "inputs": [
                {
                    "indexed": false,
                    "internalType": "uint256",
                    "name": "proposalId",
                    "type": "uint256"
                },
                {
                    "indexed": false,
                    "internalType": "address",
                    "name": "proposer",
                    "type": "address"
                },
                {
                    "indexed": false,
                    "internalType": "address[]",
                    "name": "targets",
                    "type": "address[]"
                },
                {
                    "indexed": false,
                    "internalType": "uint256[]",
                    "name": "values",
                    "type": "uint256[]"
                },
                {
                    "indexed": false,
                    "internalType": "string[]",
                    "name": "signatures",
                    "type": "string[]"
                },
                {
                    "indexed": false,
                    "internalType": "bytes[]",
                    "name": "calldatas",
                    "type": "bytes[]"
                },
                {
                    "indexed": false,
                    "internalType": "uint256",
                    "name": "voteStart",
                    "type": "uint256"
                },
                {
                    "indexed": false,
                    "internalType": "uint256",
                    "name": "voteEnd",
                    "type": "uint256"
                },
                {
                    "indexed": false,
                    "internalType": "string",
                    "name": "description",
                    "type": "string"
                }
            ],
            "name": "ProposalCreated",
            "type": "event"
        },
        {
            "anonymous": false,
            "inputs": [
                {
                    "indexed": false,
                    "internalType": "uint256",
                    "name": "proposalId",
                    "type": "uint256"
                }
            ],
            "name": "ProposalExecuted",
            "type": "event"
        },
        {
            "anonymous": false,
            "inputs": [
                {
                    "indexed": false,
                    "internalType": "uint256",
                    "name": "proposalId",
                    "type": "uint256"
                },
                {
                    "indexed": false,
                    "internalType": "uint256",
                    "name": "etaSeconds",
                    "type": "uint256"
                }
            ],
            "name": "ProposalQueued",
            "type": "event"
        },
        {
            "anonymous": false,
            "inputs": [
                {
                    "indexed": false,
                    "internalType": "uint256",
                    "name": "oldQuorumNumerator",
                    "type": "uint256"
                },
                {
                    "indexed": false,
                    "internalType": "uint256",
                    "name": "newQuorumNumerator",
                    "type": "uint256"
                }
            ],
            "name": "QuorumNumeratorUpdated",
            "type": "event"
        },
        {
            "anonymous": false,
            "inputs": [
                {
                    "indexed": false,
                    "internalType": "address",
                    "name": "oldTimelock",
                    "type": "address"
                },
                {
                    "indexed": false,
                    "internalType": "address",
                    "name": "newTimelock",
                    "type": "address"
                }
            ],
            "name": "TimelockChange",
            "type": "event"
        },
        {
            "anonymous": false,
            "inputs": [
                {
                    "indexed": true,
                    "internalType": "address",
                    "name": "voter",
                    "type": "address"
                },
                {
                    "indexed": false,
                    "internalType": "uint256",
                    "name": "proposalId",
                    "type": "uint256"
                },
                {
                    "indexed": false,
                    "internalType": "uint8",
                    "name": "support",
                    "type": "uint8"
                },
                {
                    "indexed": false,
                    "internalType": "uint256",
                    "name": "weight",
                    "type": "uint256"
                },
                {
                    "indexed": false,
                    "internalType": "string",
                    "name": "reason",
                    "type": "string"
                }
            ],
            "name": "VoteCast",
            "type": "event"
        },
        {
            "anonymous": false,
            "inputs": [
                {
                    "indexed": true,
                    "internalType": "address",
                    "name": "voter",
                    "type": "address"
                },
                {
                    "indexed": false,
                    "internalType": "uint256",
                    "name": "proposalId",
                    "type": "uint256"
                },
                {
                    "indexed": false,
                    "internalType": "uint8",
                    "name": "support",
                    "type": "uint8"
                },
                {
                    "indexed": false,
                    "internalType": "uint256",
                    "name": "weight",
                    "type": "uint256"
                },
                {
                    "indexed": false,
                    "internalType": "string",
                    "name": "reason",
                    "type": "string"
                },
                {
                    "indexed": false,
                    "internalType": "bytes",
                    "name": "params",
                    "type": "bytes"
                }
            ],
            "name": "VoteCastWithParams",
            "type": "event"
        },
        {
            "inputs": [],
            "name": "BALLOT_TYPEHASH",
            "outputs": [
                {
                    "internalType": "bytes32",
                    "name": "",
                    "type": "bytes32"
                }
            ],
            "stateMutability": "view",
            "type": "function"
        },
        {
            "inputs": [],
            "name": "CLOCK_MODE",
            "outputs": [
                {
                    "internalType": "string",
                    "name": "",
                    "type": "string"
                }
            ],
            "stateMutability": "view",
            "type": "function"
        },
        {
            "inputs": [],
            "name": "COUNTING_MODE",
            "outputs": [
                {
                    "internalType": "string",
                    "name": "",
                    "type": "string"
                }
            ],
            "stateMutability": "pure",
            "type": "function"
        },
        {
            "inputs": [],
            "name": "EXTENDED_BALLOT_TYPEHASH",
            "outputs": [
                {
                    "internalType": "bytes32",
                    "name": "",
                    "type": "bytes32"
                }
            ],
            "stateMutability": "view",
            "type": "function"
        },
        {
            "inputs": [
                {
                    "internalType": "address[]",
                    "name": "targets",
                    "type": "address[]"
                },
                {
                    "internalType": "uint256[]",
                    "name": "values",
                    "type": "uint256[]"
                },
                {
                    "internalType": "bytes[]",
                    "name": "calldatas",
                    "type": "bytes[]"
                },
                {
                    "internalType": "bytes32",
                    "name": "descriptionHash",
                    "type": "bytes32"
                }
            ],
            "name": "cancel",
            "outputs": [
                {
                    "internalType": "uint256",
                    "name": "",
                    "type": "uint256"
                }
            ],
            "stateMutability": "nonpayable",
            "type": "function"
        },
        {
            "inputs": [
                {
                    "internalType": "uint256",
                    "name": "proposalId",
                    "type": "uint256"
                },
                {
                    "internalType": "uint8",
                    "name": "support",
                    "type": "uint8"
                }
            ],
            "name": "castVote",
            "outputs": [
                {
                    "internalType": "uint256",
                    "name": "",
                    "type": "uint256"
                }
            ],
            "stateMutability": "nonpayable",
            "type": "function"
        },
        {
            "inputs": [
                {
                    "internalType": "uint256",
                    "name": "proposalId",
                    "type": "uint256"
                },
                {
                    "internalType": "uint8",
                    "name": "support",
                    "type": "uint8"
                },
                {
                    "internalType": "address",
                    "name": "voter",
                    "type": "address"
                },
                {
                    "internalType": "bytes",
                    "name": "signature",
                    "type": "bytes"
                }
            ],
            "name": "castVoteBySig",
            "outputs": [
                {
                    "internalType": "uint256",
                    "name": "",
                    "type": "uint256"
                }
            ],
            "stateMutability": "nonpayable",
            "type": "function"
        },
        {
            "inputs": [
                {
                    "internalType": "uint256",
                    "name": "proposalId",
                    "type": "uint256"
                },
                {
                    "internalType": "uint8",
                    "name": "support",
                    "type": "uint8"
                },
                {
                    "internalType": "string",
                    "name": "reason",
                    "type": "string"
                }
            ],
            "name": "castVoteWithReason",
            "outputs": [
                {
                    "internalType": "uint256",
                    "name": "",
                    "type": "uint256"
                }
            ],
            "stateMutability": "nonpayable",
            "type": "function"
        },
        {
            "inputs": [
                {
                    "internalType": "uint256",
                    "name": "proposalId",
                    "type": "uint256"
                },
                {
                    "internalType": "uint8",
                    "name": "support",
                    "type": "uint8"
                },
                {
                    "internalType": "string",
                    "name": "reason",
                    "type": "string"
                },
                {
                    "internalType": "bytes",
                    "name": "params",
                    "type": "bytes"
                }
            ],
            "name": "castVoteWithReasonAndParams",
            "outputs": [
                {
                    "internalType": "uint256",
                    "name": "",
                    "type": "uint256"
                }
            ],
            "stateMutability": "nonpayable",
            "type": "function"
        },
        {
            "inputs": [
                {
                    "internalType": "uint256",
                    "name": "proposalId",
                    "type": "uint256"
                },
                {
                    "internalType": "uint8",
                    "name": "support",
                    "type": "uint8"
                },
                {
                    "internalType": "address",
                    "name": "voter",
                    "type": "address"
                },
                {
                    "internalType": "string",
                    "name": "reason",
                    "type": "string"
                },
                {
                    "internalType": "bytes",
                    "name": "params",
                    "type": "bytes"
                },
                {
                    "internalType": "bytes",
                    "name": "signature",
                    "type": "bytes"
                }
            ],
            "name": "castVoteWithReasonAndParamsBySig",
            "outputs": [
                {
                    "internalType": "uint256",
                    "name": "",
                    "type": "uint256"
                }
            ],
            "stateMutability": "nonpayable",
            "type": "function"
        },
        {
            "inputs": [],
            "name": "clock",
            "outputs": [
                {
                    "internalType": "uint48",
                    "name": "",
                    "type": "uint48"
                }
            ],
            "stateMutability": "view",
            "type": "function"
        },
        {
            "inputs": [],
            "name": "eip712Domain",
            "outputs": [
                {
                    "internalType": "bytes1",
                    "name": "fields",
                    "type": "bytes1"
                },
                {
                    "internalType": "string",
                    "name": "name",
                    "type": "string"
                },
                {
                    "internalType": "string",
                    "name": "version",
                    "type": "string"
                },
                {
                    "internalType": "uint256",
                    "name": "chainId",
                    "type": "uint256"
                },
                {
                    "internalType": "address",
                    "name": "verifyingContract",
                    "type": "address"
                },
                {
                    "internalType": "bytes32",
                    "name": "salt",
                    "type": "bytes32"
                },
                {
                    "internalType": "uint256[]",
                    "name": "extensions",
                    "type": "uint256[]"
                }
            ],
            "stateMutability": "view",
            "type": "function"
        },
        {
            "inputs": [
                {
                    "internalType": "address[]",
                    "name": "targets",
                    "type": "address[]"
                },
                {
                    "internalType": "uint256[]",
                    "name": "values",
                    "type": "uint256[]"
                },
                {
                    "internalType": "bytes[]",
                    "name": "calldatas",
                    "type": "bytes[]"
                },
                {
                    "internalType": "bytes32",
                    "name": "descriptionHash",
                    "type": "bytes32"
                }
            ],
            "name": "execute",
            "outputs": [
                {
                    "internalType": "uint256",
                    "name": "",
                    "type": "uint256"
                }
            ],
            "stateMutability": "payable",
            "type": "function"
        },
        {
            "inputs": [
                {
                    "internalType": "address",
                    "name": "account",
                    "type": "address"
                },
                {
                    "internalType": "uint256",
                    "name": "timepoint",
                    "type": "uint256"
                }
            ],
            "name": "getVotes",
            "outputs": [
                {
                    "internalType": "uint256",
                    "name": "",
                    "type": "uint256"
                }
            ],
            "stateMutability": "view",
            "type": "function"
        },
        {
            "inputs": [
                {
                    "internalType": "address",
                    "name": "account",
                    "type": "address"
                },
                {
                    "internalType": "uint256",
                    "name": "timepoint",
                    "type": "uint256"
                },
                {
                    "internalType": "bytes",
                    "name": "params",
                    "type": "bytes"
                }
            ],
            "name": "getVotesWithParams",
            "outputs": [
                {
                    "internalType": "uint256",
                    "name": "",
                    "type": "uint256"
                }
            ],
            "stateMutability": "view",
            "type": "function"
        },
        {
            "inputs": [
                {
                    "internalType": "uint256",
                    "name": "proposalId",
                    "type": "uint256"
                },
                {
                    "internalType": "address",
                    "name": "account",
                    "type": "address"
                }
            ],
            "name": "hasVoted",
            "outputs": [
                {
                    "internalType": "bool",
                    "name": "",
                    "type": "bool"
                }
            ],
            "stateMutability": "view",
            "type": "function"
        },
        {
            "inputs": [
                {
                    "internalType": "address[]",
                    "name": "targets",
                    "type": "address[]"
                },
                {
                    "internalType": "uint256[]",
                    "name": "values",
                    "type": "uint256[]"
                },
                {
                    "internalType": "bytes[]",
                    "name": "calldatas",
                    "type": "bytes[]"
                },
                {
                    "internalType": "bytes32",
                    "name": "descriptionHash",
                    "type": "bytes32"
                }
            ],
            "name": "hashProposal",
            "outputs": [
                {
                    "internalType": "uint256",
                    "name": "",
                    "type": "uint256"
                }
            ],
            "stateMutability": "pure",
            "type": "function"
        },
        {
            "inputs": [
                {
                    "internalType": "contract IVotes",
                    "name": "_token",
                    "type": "address"
                },
                {
                    "internalType": "contract TimelockControllerUpgradeable",
                    "name": "_timelock",
                    "type": "address"
                }
            ],
            "name": "initialize",
            "outputs": [],
            "stateMutability": "nonpayable",
            "type": "function"
        },
        {
            "inputs": [],
            "name": "name",
            "outputs": [
                {
                    "internalType": "string",
                    "name": "",
                    "type": "string"
                }
            ],
            "stateMutability": "view",
            "type": "function"
        },
        {
            "inputs": [
                {
                    "internalType": "address",
                    "name": "owner",
                    "type": "address"
                }
            ],
            "name": "nonces",
            "outputs": [
                {
                    "internalType": "uint256",
                    "name": "",
                    "type": "uint256"
                }
            ],
            "stateMutability": "view",
            "type": "function"
        },
        {
            "inputs": [
                {
                    "internalType": "address",
                    "name": "",
                    "type": "address"
                },
                {
                    "internalType": "address",
                    "name": "",
                    "type": "address"
                },
                {
                    "internalType": "uint256[]",
                    "name": "",
                    "type": "uint256[]"
                },
                {
                    "internalType": "uint256[]",
                    "name": "",
                    "type": "uint256[]"
                },
                {
                    "internalType": "bytes",
                    "name": "",
                    "type": "bytes"
                }
            ],
            "name": "onERC1155BatchReceived",
            "outputs": [
                {
                    "internalType": "bytes4",
                    "name": "",
                    "type": "bytes4"
                }
            ],
            "stateMutability": "nonpayable",
            "type": "function"
        },
        {
            "inputs": [
                {
                    "internalType": "address",
                    "name": "",
                    "type": "address"
                },
                {
                    "internalType": "address",
                    "name": "",
                    "type": "address"
                },
                {
                    "internalType": "uint256",
                    "name": "",
                    "type": "uint256"
                },
                {
                    "internalType": "uint256",
                    "name": "",
                    "type": "uint256"
                },
                {
                    "internalType": "bytes",
                    "name": "",
                    "type": "bytes"
                }
            ],
            "name": "onERC1155Received",
            "outputs": [
                {
                    "internalType": "bytes4",
                    "name": "",
                    "type": "bytes4"
                }
            ],
            "stateMutability": "nonpayable",
            "type": "function"
        },
        {
            "inputs": [
                {
                    "internalType": "address",
                    "name": "",
                    "type": "address"
                },
                {
                    "internalType": "address",
                    "name": "",
                    "type": "address"
                },
                {
                    "internalType": "uint256",
                    "name": "",
                    "type": "uint256"
                },
                {
                    "internalType": "bytes",
                    "name": "",
                    "type": "bytes"
                }
            ],
            "name": "onERC721Received",
            "outputs": [
                {
                    "internalType": "bytes4",
                    "name": "",
                    "type": "bytes4"
                }
            ],
            "stateMutability": "nonpayable",
            "type": "function"
        },
        {
            "inputs": [
                {
                    "internalType": "uint256",
                    "name": "proposalId",
                    "type": "uint256"
                }
            ],
            "name": "proposalDeadline",
            "outputs": [
                {
                    "internalType": "uint256",
                    "name": "",
                    "type": "uint256"
                }
            ],
            "stateMutability": "view",
            "type": "function"
        },
        {
            "inputs": [
                {
                    "internalType": "uint256",
                    "name": "proposalId",
                    "type": "uint256"
                }
            ],
            "name": "proposalEta",
            "outputs": [
                {
                    "internalType": "uint256",
                    "name": "",
                    "type": "uint256"
                }
            ],
            "stateMutability": "view",
            "type": "function"
        },
        {
            "inputs": [
                {
                    "internalType": "uint256",
                    "name": "proposalId",
                    "type": "uint256"
                }
            ],
            "name": "proposalNeedsQueuing",
            "outputs": [
                {
                    "internalType": "bool",
                    "name": "",
                    "type": "bool"
                }
            ],
            "stateMutability": "view",
            "type": "function"
        },
        {
            "inputs": [
                {
                    "internalType": "uint256",
                    "name": "proposalId",
                    "type": "uint256"
                }
            ],
            "name": "proposalProposer",
            "outputs": [
                {
                    "internalType": "address",
                    "name": "",
                    "type": "address"
                }
            ],
            "stateMutability": "view",
            "type": "function"
        },
        {
            "inputs": [
                {
                    "internalType": "uint256",
                    "name": "proposalId",
                    "type": "uint256"
                }
            ],
            "name": "proposalSnapshot",
            "outputs": [
                {
                    "internalType": "uint256",
                    "name": "",
                    "type": "uint256"
                }
            ],
            "stateMutability": "view",
            "type": "function"
        },
        {
            "inputs": [],
            "name": "proposalThreshold",
            "outputs": [
                {
                    "internalType": "uint256",
                    "name": "",
                    "type": "uint256"
                }
            ],
            "stateMutability": "pure",
            "type": "function"
        },
        {
            "inputs": [
                {
                    "internalType": "uint256",
                    "name": "proposalId",
                    "type": "uint256"
                }
            ],
            "name": "proposalVotes",
            "outputs": [
                {
                    "internalType": "uint256",
                    "name": "againstVotes",
                    "type": "uint256"
                },
                {
                    "internalType": "uint256",
                    "name": "forVotes",
                    "type": "uint256"
                },
                {
                    "internalType": "uint256",
                    "name": "abstainVotes",
                    "type": "uint256"
                }
            ],
            "stateMutability": "view",
            "type": "function"
        },
        {
            "inputs": [
                {
                    "internalType": "address[]",
                    "name": "targets",
                    "type": "address[]"
                },
                {
                    "internalType": "uint256[]",
                    "name": "values",
                    "type": "uint256[]"
                },
                {
                    "internalType": "bytes[]",
                    "name": "calldatas",
                    "type": "bytes[]"
                },
                {
                    "internalType": "string",
                    "name": "description",
                    "type": "string"
                }
            ],
            "name": "propose",
            "outputs": [
                {
                    "internalType": "uint256",
                    "name": "",
                    "type": "uint256"
                }
            ],
            "stateMutability": "nonpayable",
            "type": "function"
        },
        {
            "inputs": [
                {
                    "internalType": "address[]",
                    "name": "targets",
                    "type": "address[]"
                },
                {
                    "internalType": "uint256[]",
                    "name": "values",
                    "type": "uint256[]"
                },
                {
                    "internalType": "bytes[]",
                    "name": "calldatas",
                    "type": "bytes[]"
                },
                {
                    "internalType": "bytes32",
                    "name": "descriptionHash",
                    "type": "bytes32"
                }
            ],
            "name": "queue",
            "outputs": [
                {
                    "internalType": "uint256",
                    "name": "",
                    "type": "uint256"
                }
            ],
            "stateMutability": "nonpayable",
            "type": "function"
        },
        {
            "inputs": [
                {
                    "internalType": "uint256",
                    "name": "timepoint",
                    "type": "uint256"
                }
            ],
            "name": "quorum",
            "outputs": [
                {
                    "internalType": "uint256",
                    "name": "",
                    "type": "uint256"
                }
            ],
            "stateMutability": "view",
            "type": "function"
        },
        {
            "inputs": [],
            "name": "quorumDenominator",
            "outputs": [
                {
                    "internalType": "uint256",
                    "name": "",
                    "type": "uint256"
                }
            ],
            "stateMutability": "view",
            "type": "function"
        },
        {
            "inputs": [
                {
                    "internalType": "uint256",
                    "name": "timepoint",
                    "type": "uint256"
                }
            ],
            "name": "quorumNumerator",
            "outputs": [
                {
                    "internalType": "uint256",
                    "name": "",
                    "type": "uint256"
                }
            ],
            "stateMutability": "view",
            "type": "function"
        },
        {
            "inputs": [],
            "name": "quorumNumerator",
            "outputs": [
                {
                    "internalType": "uint256",
                    "name": "",
                    "type": "uint256"
                }
            ],
            "stateMutability": "view",
            "type": "function"
        },
        {
            "inputs": [
                {
                    "internalType": "address",
                    "name": "target",
                    "type": "address"
                },
                {
                    "internalType": "uint256",
                    "name": "value",
                    "type": "uint256"
                },
                {
                    "internalType": "bytes",
                    "name": "data",
                    "type": "bytes"
                }
            ],
            "name": "relay",
            "outputs": [],
            "stateMutability": "payable",
            "type": "function"
        },
        {
            "inputs": [
                {
                    "internalType": "uint256",
                    "name": "proposalId",
                    "type": "uint256"
                }
            ],
            "name": "state",
            "outputs": [
                {
                    "internalType": "enum IGovernor.ProposalState",
                    "name": "",
                    "type": "uint8"
                }
            ],
            "stateMutability": "view",
            "type": "function"
        },
        {
            "inputs": [
                {
                    "internalType": "bytes4",
                    "name": "interfaceId",
                    "type": "bytes4"
                }
            ],
            "name": "supportsInterface",
            "outputs": [
                {
                    "internalType": "bool",
                    "name": "",
                    "type": "bool"
                }
            ],
            "stateMutability": "view",
            "type": "function"
        },
        {
            "inputs": [],
            "name": "timelock",
            "outputs": [
                {
                    "internalType": "address",
                    "name": "",
                    "type": "address"
                }
            ],
            "stateMutability": "view",
            "type": "function"
        },
        {
            "inputs": [],
            "name": "token",
            "outputs": [
                {
                    "internalType": "contract IERC5805",
                    "name": "",
                    "type": "address"
                }
            ],
            "stateMutability": "view",
            "type": "function"
        },
        {
            "inputs": [
                {
                    "internalType": "uint256",
                    "name": "newQuorumNumerator",
                    "type": "uint256"
                }
            ],
            "name": "updateQuorumNumerator",
            "outputs": [],
            "stateMutability": "nonpayable",
            "type": "function"
        },
        {
            "inputs": [
                {
                    "internalType": "contract TimelockControllerUpgradeable",
                    "name": "newTimelock",
                    "type": "address"
                }
            ],
            "name": "updateTimelock",
            "outputs": [],
            "stateMutability": "nonpayable",
            "type": "function"
        },
        {
            "inputs": [],
            "name": "version",
            "outputs": [
                {
                    "internalType": "string",
                    "name": "",
                    "type": "string"
                }
            ],
            "stateMutability": "view",
            "type": "function"
        },
        {
            "inputs": [],
            "name": "votingDelay",
            "outputs": [
                {
                    "internalType": "uint256",
                    "name": "",
                    "type": "uint256"
                }
            ],
            "stateMutability": "view",
            "type": "function"
        },
        {
            "inputs": [],
            "name": "votingPeriod",
            "outputs": [
                {
                    "internalType": "uint256",
                    "name": "",
                    "type": "uint256"
                }
            ],
            "stateMutability": "view",
            "type": "function"
        },
        {
            "stateMutability": "payable",
            "type": "receive"
        }
    ],
    "bytecode": "0x608060405234801561001057600080fd5b506179b280620000216000396000f3fe6080604052600436106102815760003560e01c80637d5e81e21161014f578063b58131b0116100c1578063dd4e2ba51161007a578063dd4e2ba514610b47578063deaaa7cc14610b72578063eb9019d414610b9d578063f23a6e6114610bda578063f8ce560a14610c17578063fc0c546a14610c54576102f4565b8063b58131b014610a1e578063bc197c8114610a49578063c01f9e3714610a86578063c28bc2fa14610ac3578063c59057e414610adf578063d33219b414610b1c576102f4565b806397c3d3341161011357806397c3d334146108e85780639a802a6d14610913578063a7713a7014610950578063a890c9101461097b578063a9a95294146109a4578063ab58fb8e146109e1576102f4565b80637d5e81e2146107d55780637ecebe001461081257806384b0196e1461084f5780638ff262e31461088057806391ddadf4146108bd576102f4565b80633e4f49e6116101f357806354fd4d50116101ac57806354fd4d501461067957806356781388146106a45780635b8d0e0d146106e15780635f398a141461071e57806360c4247f1461075b5780637b3c71d314610798576102f4565b80633e4f49e61461052f578063438596321461056c578063452115d6146105a9578063485cc955146105e65780634bf5d7e91461060f578063544ffc9c1461063a576102f4565b8063150b7a0211610245578063150b7a02146103f2578063160cbed71461042f5780632656227d1461046c5780632d63f6931461049c5780632fe3e261146104d95780633932abb114610504576102f4565b806301ffc9a7146102f957806302a251a31461033657806306f3f9e61461036157806306fdde031461038a578063143489d0146103b5576102f4565b366102f4573073ffffffffffffffffffffffffffffffffffffffff166102a5610c7f565b73ffffffffffffffffffffffffffffffffffffffff16146102f2576040517fe90a651e00000000000000000000000000000000000000000000000000000000815260040160405180910390fd5b005b600080fd5b34801561030557600080fd5b50610320600480360381019061031b91906151c7565b610c8e565b60405161032d919061520f565b60405180910390f35b34801561034257600080fd5b5061034b610ca0565b6040516103589190615243565b60405180910390f35b34801561036d57600080fd5b506103886004803603810190610383919061528a565b610cc5565b005b34801561039657600080fd5b5061039f610cd9565b6040516103ac9190615347565b60405180910390f35b3480156103c157600080fd5b506103dc60048036038101906103d7919061528a565b610d7a565b6040516103e991906153aa565b60405180910390f35b3480156103fe57600080fd5b5061041960048036038101906104149190615526565b610dc8565b60405161042691906155b8565b60405180910390f35b34801561043b57600080fd5b5061045660048036038101906104519190615875565b610e48565b6040516104639190615243565b60405180910390f35b61048660048036038101906104819190615875565b610f53565b6040516104939190615243565b60405180910390f35b3480156104a857600080fd5b506104c360048036038101906104be919061528a565b61114d565b6040516104d09190615243565b60405180910390f35b3480156104e557600080fd5b506104ee61117a565b6040516104fb919061593f565b60405180910390f35b34801561051057600080fd5b5061051961119e565b6040516105269190615243565b60405180910390f35b34801561053b57600080fd5b506105566004803603810190610551919061528a565b6111c2565b60405161056391906159d1565b60405180910390f35b34801561057857600080fd5b50610593600480360381019061058e91906159ec565b6111d4565b6040516105a0919061520f565b60405180910390f35b3480156105b557600080fd5b506105d060048036038101906105cb9190615875565b61124d565b6040516105dd9190615243565b60405180910390f35b3480156105f257600080fd5b5061060d60048036038101906106089190615aba565b61130f565b005b34801561061b57600080fd5b506106246114f0565b6040516106319190615347565b60405180910390f35b34801561064657600080fd5b50610661600480360381019061065c919061528a565b6115af565b60405161067093929190615afa565b60405180910390f35b34801561068557600080fd5b5061068e6115f6565b60405161069b9190615347565b60405180910390f35b3480156106b057600080fd5b506106cb60048036038101906106c69190615b6a565b611633565b6040516106d89190615243565b60405180910390f35b3480156106ed57600080fd5b5061070860048036038101906107039190615c05565b611664565b6040516107159190615243565b60405180910390f35b34801561072a57600080fd5b5061074560048036038101906107409190615cec565b611795565b6040516107529190615243565b60405180910390f35b34801561076757600080fd5b50610782600480360381019061077d919061528a565b6117ff565b60405161078f9190615243565b60405180910390f35b3480156107a457600080fd5b506107bf60048036038101906107ba9190615d90565b611917565b6040516107cc9190615243565b60405180910390f35b3480156107e157600080fd5b506107fc60048036038101906107f79190615ea5565b61197f565b6040516108099190615243565b60405180910390f35b34801561081e57600080fd5b5061083960048036038101906108349190615f7c565b611997565b6040516108469190615243565b60405180910390f35b34801561085b57600080fd5b506108646119ee565b60405161087797969594939291906160a2565b60405180910390f35b34801561088c57600080fd5b506108a760048036038101906108a29190616126565b611b00565b6040516108b49190615243565b60405180910390f35b3480156108c957600080fd5b506108d2611bd6565b6040516108df91906161ca565b60405180910390f35b3480156108f457600080fd5b506108fd611c62565b60405161090a9190615243565b60405180910390f35b34801561091f57600080fd5b5061093a600480360381019061093591906161e5565b611c6b565b6040516109479190615243565b60405180910390f35b34801561095c57600080fd5b50610965611c81565b6040516109729190615243565b60405180910390f35b34801561098757600080fd5b506109a2600480360381019061099d9190616254565b611cbc565b005b3480156109b057600080fd5b506109cb60048036038101906109c6919061528a565b611cd0565b6040516109d8919061520f565b60405180910390f35b3480156109ed57600080fd5b50610a086004803603810190610a03919061528a565b611ce2565b604051610a159190615243565b60405180910390f35b348015610a2a57600080fd5b50610a33611d2a565b604051610a409190615243565b60405180910390f35b348015610a5557600080fd5b50610a706004803603810190610a6b9190616281565b611d3b565b604051610a7d91906155b8565b60405180910390f35b348015610a9257600080fd5b50610aad6004803603810190610aa8919061528a565b611dbc565b604051610aba9190615243565b60405180910390f35b610add6004803603810190610ad891906163a6565b611e62565b005b348015610aeb57600080fd5b50610b066004803603810190610b019190615875565b611eef565b604051610b139190615243565b60405180910390f35b348015610b2857600080fd5b50610b31611f2b565b604051610b3e91906153aa565b60405180910390f35b348015610b5357600080fd5b50610b5c611f63565b604051610b699190615347565b60405180910390f35b348015610b7e57600080fd5b50610b87611fa0565b604051610b94919061593f565b60405180910390f35b348015610ba957600080fd5b50610bc46004803603810190610bbf919061641a565b611fc4565b604051610bd19190615243565b60405180910390f35b348015610be657600080fd5b50610c016004803603810190610bfc919061645a565b611fe0565b604051610c0e91906155b8565b60405180910390f35b348015610c2357600080fd5b50610c3e6004803603810190610c39919061528a565b612061565b604051610c4b9190615243565b60405180910390f35b348015610c6057600080fd5b50610c69612110565b604051610c769190616550565b60405180910390f35b6000610c89612148565b905090565b6000610c9982612180565b9050919050565b6000610caa612262565b610cb75762093a80610cbb565b6103e85b62ffffff16905090565b610ccd61227b565b610cd681612380565b50565b60606000610ce5612453565b9050806000018054610cf69061659a565b80601f0160208091040260200160405190810160405280929190818152602001828054610d229061659a565b8015610d6f5780601f10610d4457610100808354040283529160200191610d6f565b820191906000526020600020905b815481529060010190602001808311610d5257829003601f168201915b505050505091505090565b600080610d85612453565b905080600101600084815260200190815260200160002060000160009054906101000a900473ffffffffffffffffffffffffffffffffffffffff16915050919050565b60003073ffffffffffffffffffffffffffffffffffffffff16610de9610c7f565b73ffffffffffffffffffffffffffffffffffffffff1614610e36576040517fe90a651e00000000000000000000000000000000000000000000000000000000815260040160405180910390fd5b63150b7a0260e01b9050949350505050565b600080610e53612453565b90506000610e6387878787611eef565b9050610e7881610e73600461247b565b6124a1565b506000610e88828989898961250e565b905060008165ffffffffffff1614610f13578083600101600084815260200190815260200160002060010160006101000a81548165ffffffffffff021916908365ffffffffffff1602179055507f9a2e42fd6722813d69113e7d0079d3d940171428df7373df9c7f7617cfda28928282604051610f069291906165fc565b60405180910390a1610f45565b6040517f90884a4600000000000000000000000000000000000000000000000000000000815260040160405180910390fd5b819350505050949350505050565b600080610f5e612453565b90506000610f6e87878787611eef565b9050610f8e81610f7e600561247b565b610f88600461247b565b176124a1565b506001826001016000838152602001908152602001600020600001601e6101000a81548160ff0219169083151502179055503073ffffffffffffffffffffffffffffffffffffffff16610fdf610c7f565b73ffffffffffffffffffffffffffffffffffffffff161461109e5760005b875181101561109c573073ffffffffffffffffffffffffffffffffffffffff168882815181106110305761102f616625565b5b602002602001015173ffffffffffffffffffffffffffffffffffffffff160361108b5761108a86828151811061106957611068616625565b5b6020026020010151805190602001208460020161252890919063ffffffff16565b5b8061109590616683565b9050610ffd565b505b6110ab8188888888612627565b3073ffffffffffffffffffffffffffffffffffffffff166110ca610c7f565b73ffffffffffffffffffffffffffffffffffffffff16141580156110f757506110f58260020161263b565b155b1561110957611108826002016126ab565b5b7f712ae1383f79ac853f8d882153778e0260ef8f03b504e2866e0593e04d2b291f816040516111389190615243565b60405180910390a18092505050949350505050565b6000611157612262565b6111695761116482612726565b611173565b6111728261276e565b5b9050919050565b7f3e83946653575f9a39005e1545185629e92736b7528ab20ca3816f315424a81181565b60006111a8612262565b6111b557620151806111b8565b60965b62ffffff16905090565b60006111cd826127f9565b9050919050565b6000806111df6129ce565b905080600001600085815260200190815260200160002060030160008473ffffffffffffffffffffffffffffffffffffffff1673ffffffffffffffffffffffffffffffffffffffff16815260200190815260200160002060009054906101000a900460ff1691505092915050565b60008061125c86868686611eef565b90506112718161126c600061247b565b6124a1565b5061127b81610d7a565b73ffffffffffffffffffffffffffffffffffffffff166112996129f6565b73ffffffffffffffffffffffffffffffffffffffff16146112f8576112bc6129f6565b6040517f233d98e30000000000000000000000000000000000000000000000000000000081526004016112ef91906153aa565b60405180910390fd5b611304868686866129fe565b915050949350505050565b6000611319612a16565b905060008160000160089054906101000a900460ff1615905060008260000160009054906101000a900467ffffffffffffffff1690506000808267ffffffffffffffff161480156113675750825b9050600060018367ffffffffffffffff1614801561139c575060003073ffffffffffffffffffffffffffffffffffffffff163b145b9050811580156113aa575080155b156113e1576040517ff92ee8a900000000000000000000000000000000000000000000000000000000815260040160405180910390fd5b60018560000160006101000a81548167ffffffffffffffff021916908367ffffffffffffffff16021790555083156114315760018560000160086101000a81548160ff0219169083151502179055505b61146f6040518060400160405280600d81526020017f416944616f476f7665726e6f7200000000000000000000000000000000000000815250612a3e565b61147887612a63565b6114826004612a77565b61148b86612a8b565b83156114e75760008560000160086101000a81548160ff0219169083151502179055507fc7f505b2f371ae2175ee4913f4499e1f2633a7b5936321eed1cdaeb6115181d260016040516114de919061671a565b60405180910390a15b50505050505050565b60606114fa612110565b73ffffffffffffffffffffffffffffffffffffffff16634bf5d7e96040518163ffffffff1660e01b8152600401600060405180830381865afa92505050801561156657506040513d6000823e3d601f19601f8201168201806040525081019061156391906167a5565b60015b6115a7576040518060400160405280601d81526020017f6d6f64653d626c6f636b6e756d6265722666726f6d3d64656661756c7400000081525090506115ac565b809150505b90565b6000806000806115bd6129ce565b90506000816000016000878152602001908152602001600020905080600001548160010154826002015494509450945050509193909250565b60606040518060400160405280600181526020017f3100000000000000000000000000000000000000000000000000000000000000815250905090565b60008061163e6129f6565b905061165b84828560405180602001604052806000815250612a9f565b91505092915050565b6000806116f2876116ec7f3e83946653575f9a39005e1545185629e92736b7528ab20ca3816f315424a8118c8c8c61169b8e612abf565b8d8d6040516116ab92919061681e565b60405180910390208c805190602001206040516020016116d19796959493929190616846565b60405160208183030381529060405280519060200120612b24565b85612b3e565b90508061173657866040517f94ab6c0700000000000000000000000000000000000000000000000000000000815260040161172d91906153aa565b60405180910390fd5b61178789888a89898080601f016020809104026020016040519081016040528093929190818152602001838380828437600081840152601f19601f8201169050808301925050505050505088612bed565b915050979650505050505050565b6000806117a06129f6565b90506117f387828888888080601f016020809104026020016040519081016040528093929190818152602001838380828437600081840152601f19601f8201169050808301925050505050505087612bed565b91505095945050505050565b60008061180a612cfb565b905060008160000160000180549050905060008260000160000160018361183191906168b5565b8154811061184257611841616625565b5b90600052602060002001905060008160000160009054906101000a900465ffffffffffff16905060008260000160069054906101000a900479ffffffffffffffffffffffffffffffffffffffffffffffffffff169050868265ffffffffffff16116118d0578079ffffffffffffffffffffffffffffffffffffffffffffffffffff1695505050505050611912565b6118ee6118dc88612d23565b86600001612d7d90919063ffffffff16565b79ffffffffffffffffffffffffffffffffffffffffffffffffffff16955050505050505b919050565b6000806119226129f6565b905061197486828787878080601f016020809104026020016040519081016040528093929190818152602001838380828437600081840152601f19601f82011690508083019250505050505050612a9f565b915050949350505050565b600061198d85858585612e77565b9050949350505050565b6000806119a2612f71565b90508060000160008473ffffffffffffffffffffffffffffffffffffffff1673ffffffffffffffffffffffffffffffffffffffff16815260200190815260200160002054915050919050565b6000606080600080600060606000611a04612f99565b90506000801b8160000154148015611a2257506000801b8160010154145b611a61576040517f08c379a0000000000000000000000000000000000000000000000000000000008152600401611a5890616935565b60405180910390fd5b611a69612fc1565b611a71613062565b46306000801b600067ffffffffffffffff811115611a9257611a916153fb565b5b604051908082528060200260200182016040528015611ac05781602001602082028036833780820191505090505b507f0f0000000000000000000000000000000000000000000000000000000000000095949392919097509750975097509750975097505090919293949596565b600080611b6c84611b667ff2aad550cf55f045cb27e9c559f9889fdfb6e6cdaa032301d6ea397784ae51d7898989611b378b612abf565b604051602001611b4b959493929190616955565b60405160208183030381529060405280519060200120612b24565b85612b3e565b905080611bb057836040517f94ab6c07000000000000000000000000000000000000000000000000000000008152600401611ba791906153aa565b60405180910390fd5b611bcb86858760405180602001604052806000815250612a9f565b915050949350505050565b6000611be0612110565b73ffffffffffffffffffffffffffffffffffffffff166391ddadf46040518163ffffffff1660e01b8152600401602060405180830381865afa925050508015611c4757506040513d601f19601f82011682018060405250810190611c4491906169d4565b60015b611c5a57611c53613103565b9050611c5f565b809150505b90565b60006064905090565b6000611c78848484613113565b90509392505050565b600080611c8c612cfb565b9050611c9a816000016131a1565b79ffffffffffffffffffffffffffffffffffffffffffffffffffff1691505090565b611cc461227b565b611ccd81613209565b50565b6000611cdb826132b9565b9050919050565b600080611ced612453565b905080600101600084815260200190815260200160002060010160009054906101000a900465ffffffffffff1665ffffffffffff16915050919050565b600068056bc75e2d63100000905090565b60003073ffffffffffffffffffffffffffffffffffffffff16611d5c610c7f565b73ffffffffffffffffffffffffffffffffffffffff1614611da9576040517fe90a651e00000000000000000000000000000000000000000000000000000000815260040160405180910390fd5b63bc197c8160e01b905095945050505050565b6000611dc6612262565b611dd857611dd3826132c4565b611e5b565b611de0610ca0565b606473ffffffffffffffffffffffffffffffffffffffff1663a3b1b31d6040518163ffffffff1660e01b8152600401602060405180830381865afa158015611e2c573d6000803e3d6000fd5b505050506040513d601f19601f82011682018060405250810190611e509190616a16565b611e5a9190616a43565b5b9050919050565b611e6a61227b565b6000808573ffffffffffffffffffffffffffffffffffffffff16858585604051611e9592919061681e565b60006040518083038185875af1925050503d8060008114611ed2576040519150601f19603f3d011682016040523d82523d6000602084013e611ed7565b606091505b5091509150611ee68282613345565b50505050505050565b600084848484604051602001611f089493929190616c4c565b6040516020818303038152906040528051906020012060001c9050949350505050565b600080611f36613369565b90508060000160009054906101000a900473ffffffffffffffffffffffffffffffffffffffff1691505090565b60606040518060400160405280600d81526020017f737570706f72743d627261766f00000000000000000000000000000000000000815250905090565b7ff2aad550cf55f045cb27e9c559f9889fdfb6e6cdaa032301d6ea397784ae51d781565b6000611fd88383611fd3613391565b613113565b905092915050565b60003073ffffffffffffffffffffffffffffffffffffffff16612001610c7f565b73ffffffffffffffffffffffffffffffffffffffff161461204e576040517fe90a651e00000000000000000000000000000000000000000000000000000000815260040160405180910390fd5b63f23a6e6160e01b905095945050505050565b600061206b611c62565b612074836117ff565b61207c612110565b73ffffffffffffffffffffffffffffffffffffffff16638e539e8c856040518263ffffffff1660e01b81526004016120b49190615243565b602060405180830381865afa1580156120d1573d6000803e3d6000fd5b505050506040513d601f19601f820116820180604052508101906120f59190616a16565b6120ff9190616ca6565b6121099190616d17565b9050919050565b60008061211b6133a8565b90508060000160009054906101000a900473ffffffffffffffffffffffffffffffffffffffff1691505090565b600080612153613369565b90508060000160009054906101000a900473ffffffffffffffffffffffffffffffffffffffff1691505090565b60007f65455a86000000000000000000000000000000000000000000000000000000007bffffffffffffffffffffffffffffffffffffffffffffffffffffffff1916827bffffffffffffffffffffffffffffffffffffffffffffffffffffffff1916148061224b57507f4e2312e0000000000000000000000000000000000000000000000000000000007bffffffffffffffffffffffffffffffffffffffffffffffffffffffff1916827bffffffffffffffffffffffffffffffffffffffffffffffffffffffff1916145b8061225b575061225a826133d0565b5b9050919050565b600061a4b1461480612276575062066eed46145b905090565b6000612285612453565b905061228f6129f6565b73ffffffffffffffffffffffffffffffffffffffff166122ad610c7f565b73ffffffffffffffffffffffffffffffffffffffff161461230c576122d06129f6565b6040517f47096e4700000000000000000000000000000000000000000000000000000000815260040161230391906153aa565b60405180910390fd5b3073ffffffffffffffffffffffffffffffffffffffff1661232b610c7f565b73ffffffffffffffffffffffffffffffffffffffff161461237d57600061235061343a565b60405161235e92919061681e565b604051809103902090505b8061237683600201613447565b0361236957505b50565b600061238a612cfb565b90506000612396611c62565b9050808311156123df5782816040517f243e54450000000000000000000000000000000000000000000000000000000081526004016123d6929190616d48565b60405180910390fd5b60006123e9611c81565b90506124126123f6611bd6565b6123ff86613580565b856000016135ee9092919063ffffffff16565b50507f0553476bf02ef2726e8ce5ced78d63e26e602e4a2257b1f559418e24b46339978185604051612445929190616d48565b60405180910390a150505050565b60007f7c712897014dbe49c045ef1299aa2d5f9e67e48eea4403efa21f1e0f3ac0cb00905090565b60008160078111156124905761248f61595a565b5b60ff166001901b60001b9050919050565b6000806124ad846111c2565b90506000801b836124bd8361247b565b1603612504578381846040517f31b75e4d0000000000000000000000000000000000000000000000000000000081526004016124fb93929190616d71565b60405180910390fd5b8091505092915050565b600061251d868686868661360b565b905095945050505050565b60008260000160109054906101000a90046fffffffffffffffffffffffffffffffff1690508260000160009054906101000a90046fffffffffffffffffffffffffffffffff166fffffffffffffffffffffffffffffffff16600182016fffffffffffffffffffffffffffffffff16036125a6576125a56041613838565b5b81836001016000836fffffffffffffffffffffffffffffffff166fffffffffffffffffffffffffffffffff16815260200190815260200160002081905550600181018360000160106101000a8154816fffffffffffffffffffffffffffffffff02191690836fffffffffffffffffffffffffffffffff160217905550505050565b612634858585858561384a565b5050505050565b60008160000160009054906101000a90046fffffffffffffffffffffffffffffffff166fffffffffffffffffffffffffffffffff168260000160109054906101000a90046fffffffffffffffffffffffffffffffff166fffffffffffffffffffffffffffffffff16149050919050565b60008160000160006101000a8154816fffffffffffffffffffffffffffffffff02191690836fffffffffffffffffffffffffffffffff16021790555060008160000160106101000a8154816fffffffffffffffffffffffffffffffff02191690836fffffffffffffffffffffffffffffffff16021790555050565b600080612731612453565b905080600101600084815260200190815260200160002060000160149054906101000a900465ffffffffffff1665ffffffffffff16915050919050565b600061277861119e565b606473ffffffffffffffffffffffffffffffffffffffff1663a3b1b31d6040518163ffffffff1660e01b8152600401602060405180830381865afa1580156127c4573d6000803e3d6000fd5b505050506040513d601f19601f820116820180604052508101906127e89190616a16565b6127f29190616a43565b9050919050565b600080612804613369565b9050600061281184613918565b9050600560078111156128275761282661595a565b5b81600781111561283a5761283961595a565b5b146128495780925050506129c9565b60008260010160008681526020019081526020016000205490508260000160009054906101000a900473ffffffffffffffffffffffffffffffffffffffff1673ffffffffffffffffffffffffffffffffffffffff1663584b153e826040518263ffffffff1660e01b81526004016128c0919061593f565b602060405180830381865afa1580156128dd573d6000803e3d6000fd5b505050506040513d601f19601f820116820180604052508101906129019190616dd4565b1561291257600593505050506129c9565b8260000160009054906101000a900473ffffffffffffffffffffffffffffffffffffffff1673ffffffffffffffffffffffffffffffffffffffff16632ab0f529826040518263ffffffff1660e01b815260040161296f919061593f565b602060405180830381865afa15801561298c573d6000803e3d6000fd5b505050506040513d601f19601f820116820180604052508101906129b09190616dd4565b156129c157600793505050506129c9565b600293505050505b919050565b60007fa1cefa0f43667ef127a258e673c94202a79b656e62899531c4376d87a7f39800905090565b600033905090565b6000612a0c85858585613a91565b9050949350505050565b60007ff0c57e16840df040f15088dc2f81fe391c3923bec73e23a9662efc9c229c6a00905090565b612a46613b89565b612a5781612a526115f6565b613bc9565b612a6081613c1e565b50565b612a6b613b89565b612a7481613c48565b50565b612a7f613b89565b612a8881613ca3565b50565b612a93613b89565b612a9c81613cb7565b50565b6000612ab585858585612ab0613391565b612bed565b9050949350505050565b600080612aca612f71565b90508060000160008473ffffffffffffffffffffffffffffffffffffffff1673ffffffffffffffffffffffffffffffffffffffff168152602001908152602001600020600081548092919060010191905055915050919050565b6000612b37612b31613ccb565b83613cda565b9050919050565b6000808473ffffffffffffffffffffffffffffffffffffffff163b03612bd857600080612b6b8585613d1b565b509150915060006003811115612b8457612b8361595a565b5b816003811115612b9757612b9661595a565b5b148015612bcf57508573ffffffffffffffffffffffffffffffffffffffff168273ffffffffffffffffffffffffffffffffffffffff16145b92505050612be6565b612be3848484613d77565b90505b9392505050565b6000612c0286612bfd600161247b565b6124a1565b506000612c1886612c128961114d565b85613113565b90506000612c298888888588613e9b565b90506000845103612c8d578673ffffffffffffffffffffffffffffffffffffffff167fb8e138887d0aa13bab447e82de9d5c1777041ecd21ca36ba824ff1e6c07ddda489888489604051612c809493929190616e01565b60405180910390a2612ce4565b8673ffffffffffffffffffffffffffffffffffffffff167fe2babfbac5889a709b63bb7f598b324e08bc5a4fb9ec647fb3cbc9ec07eb87128988848989604051612cdb959493929190616e97565b60405180910390a25b612ced886140ad565b809250505095945050505050565b60007fe770710421fd2cad75ad828c61aa98f2d77d423a440b67872d0f65554148e000905090565b600065ffffffffffff8016821115612d75576030826040517f6dfcc650000000000000000000000000000000000000000000000000000000008152600401612d6c929190616f33565b60405180910390fd5b819050919050565b600080836000018054905090506000808290506005831115612e05576000612da4846140b0565b84612daf91906168b5565b9050612dbe876000018261424d565b60000160009054906101000a900465ffffffffffff1665ffffffffffff168665ffffffffffff161015612df357809150612e03565b600181612e009190616a43565b92505b505b6000612e1687600001878585614262565b905060008114612e6857612e3987600001600183612e3491906168b5565b61424d565b60000160069054906101000a900479ffffffffffffffffffffffffffffffffffffffffffffffffffff16612e6b565b60005b94505050505092915050565b600080612e826129f6565b9050612e8e81846142db565b612ecf57806040517fd9b39557000000000000000000000000000000000000000000000000000000008152600401612ec691906153aa565b60405180910390fd5b6000612ed9611d2a565b90506000811115612f58576000612f0b836001612ef4611bd6565b612efe9190616f5c565b65ffffffffffff16611fc4565b905081811015612f56578281836040517fc242ee16000000000000000000000000000000000000000000000000000000008152600401612f4d93929190616f96565b60405180910390fd5b505b612f6587878787866143c4565b92505050949350505050565b60007f5ab42ced628888259c08ac98db1eb0cf702fc1501344311d8b100cd1bfe4bb00905090565b60007fa16a46d94261c7517cc8ff89f61c0ce93598e3c849801011dee649a6a557d100905090565b60606000612fcd612f99565b9050806002018054612fde9061659a565b80601f016020809104026020016040519081016040528092919081815260200182805461300a9061659a565b80156130575780601f1061302c57610100808354040283529160200191613057565b820191906000526020600020905b81548152906001019060200180831161303a57829003601f168201915b505050505091505090565b6060600061306e612f99565b905080600301805461307f9061659a565b80601f01602080910402602001604051908101604052809291908181526020018280546130ab9061659a565b80156130f85780601f106130cd576101008083540402835291602001916130f8565b820191906000526020600020905b8154815290600101906020018083116130db57829003601f168201915b505050505091505090565b600061310e43612d23565b905090565b600061311d612110565b73ffffffffffffffffffffffffffffffffffffffff16633a46b1a885856040518363ffffffff1660e01b8152600401613157929190616fcd565b602060405180830381865afa158015613174573d6000803e3d6000fd5b505050506040513d601f19601f820116820180604052508101906131989190616a16565b90509392505050565b60008082600001805490509050600081146131fe576131cf836000016001836131ca91906168b5565b61424d565b60000160069054906101000a900479ffffffffffffffffffffffffffffffffffffffffffffffffffff16613201565b60005b915050919050565b6000613213613369565b90507f08f74ea46ef7894f65eabfb5e6e695de773a000b47c529ab559178069b2264018160000160009054906101000a900473ffffffffffffffffffffffffffffffffffffffff168360405161326a929190616ff6565b60405180910390a1818160000160006101000a81548173ffffffffffffffffffffffffffffffffffffffff021916908373ffffffffffffffffffffffffffffffffffffffff1602179055505050565b600060019050919050565b6000806132cf612453565b9050806001016000848152602001908152602001600020600001601a9054906101000a900463ffffffff1663ffffffff1681600101600085815260200190815260200160002060000160149054906101000a900465ffffffffffff16613335919061701f565b65ffffffffffff16915050919050565b60608261335a5761335582614669565b613362565b819050613363565b5b92915050565b60007f0d5829787b8befdbc6044ef7457d8a95c2a04bc99235349f1a212c063e59d400905090565b606060405180602001604052806000815250905090565b60007f3ba4977254e415696610a40ebf2258dbfa0ec6a2ff64e84bfe715ff16977cc00905090565b60007f01ffc9a7000000000000000000000000000000000000000000000000000000007bffffffffffffffffffffffffffffffffffffffffffffffffffffffff1916827bffffffffffffffffffffffffffffffffffffffffffffffffffffffff1916149050919050565b3660008036915091509091565b6000808260000160009054906101000a90046fffffffffffffffffffffffffffffffff1690508260000160109054906101000a90046fffffffffffffffffffffffffffffffff166fffffffffffffffffffffffffffffffff16816fffffffffffffffffffffffffffffffff16036134c3576134c26031613838565b5b826001016000826fffffffffffffffffffffffffffffffff166fffffffffffffffffffffffffffffffff168152602001908152602001600020549150826001016000826fffffffffffffffffffffffffffffffff166fffffffffffffffffffffffffffffffff16815260200190815260200160002060009055600181018360000160006101000a8154816fffffffffffffffffffffffffffffffff02191690836fffffffffffffffffffffffffffffffff16021790555050919050565b600079ffffffffffffffffffffffffffffffffffffffffffffffffffff80168211156135e65760d0826040517f6dfcc6500000000000000000000000000000000000000000000000000000000081526004016135dd929190617094565b60405180910390fd5b819050919050565b6000806135ff8560000185856146ae565b91509150935093915050565b600080613616613369565b905060008160000160009054906101000a900473ffffffffffffffffffffffffffffffffffffffff1673ffffffffffffffffffffffffffffffffffffffff1663f27a0c926040518163ffffffff1660e01b8152600401602060405180830381865afa158015613689573d6000803e3d6000fd5b505050506040513d601f19601f820116820180604052508101906136ad9190616a16565b905060006136ba856149bb565b90508260000160009054906101000a900473ffffffffffffffffffffffffffffffffffffffff1673ffffffffffffffffffffffffffffffffffffffff1663b1c5f4278989896000866040518663ffffffff1660e01b8152600401613722959493929190617105565b602060405180830381865afa15801561373f573d6000803e3d6000fd5b505050506040513d601f19601f820116820180604052508101906137639190617182565b8360010160008b8152602001908152602001600020819055508260000160009054906101000a900473ffffffffffffffffffffffffffffffffffffffff1673ffffffffffffffffffffffffffffffffffffffff16638f2a0bb0898989600086886040518763ffffffff1660e01b81526004016137e4969594939291906171af565b600060405180830381600087803b1580156137fe57600080fd5b505af1158015613812573d6000803e3d6000fd5b5050505061382a82426138259190616a43565b612d23565b935050505095945050505050565b634e487b71600052806020526024601cfd5b6000613854613369565b90508060000160009054906101000a900473ffffffffffffffffffffffffffffffffffffffff1673ffffffffffffffffffffffffffffffffffffffff1663e38335e53487878760006138a5896149bb565b6040518763ffffffff1660e01b81526004016138c5959493929190617105565b6000604051808303818588803b1580156138de57600080fd5b505af11580156138f2573d6000803e3d6000fd5b505050505080600101600087815260200190815260200160002060009055505050505050565b600080613923612453565b905060008160010160008581526020019081526020016000209050600081600001601e9054906101000a900460ff169050600082600001601f9054906101000a900460ff169050811561397d576007945050505050613a8c565b8015613990576002945050505050613a8c565b600061399b8761114d565b9050600081036139e257866040517f6ad060750000000000000000000000000000000000000000000000000000000081526004016139d99190615243565b60405180910390fd5b60006139ec611bd6565b65ffffffffffff169050808210613a0c5760009650505050505050613a8c565b6000613a1789611dbc565b9050818110613a30576001975050505050505050613a8c565b613a39896149d9565b1580613a4b5750613a4989614a2f565b155b15613a60576003975050505050505050613a8c565b6000613a6b8a611ce2565b03613a80576004975050505050505050613a8c565b60059750505050505050505b919050565b600080613a9c613369565b90506000613aac87878787614a69565b905060008260010160008381526020019081526020016000205490506000801b8114613b7b578260000160009054906101000a900473ffffffffffffffffffffffffffffffffffffffff1673ffffffffffffffffffffffffffffffffffffffff1663c4d252f5826040518263ffffffff1660e01b8152600401613b2f919061593f565b600060405180830381600087803b158015613b4957600080fd5b505af1158015613b5d573d6000803e3d6000fd5b50505050826001016000838152602001908152602001600020600090555b819350505050949350505050565b613b91614b5f565b613bc7576040517fd7e6bcf800000000000000000000000000000000000000000000000000000000815260040160405180910390fd5b565b613bd1613b89565b6000613bdb612f99565b905082816002019081613bee91906173c7565b5081816003019081613c0091906173c7565b506000801b81600001819055506000801b8160010181905550505050565b613c26613b89565b6000613c30612453565b905081816000019081613c4391906173c7565b505050565b613c50613b89565b6000613c5a6133a8565b9050818160000160006101000a81548173ffffffffffffffffffffffffffffffffffffffff021916908373ffffffffffffffffffffffffffffffffffffffff1602179055505050565b613cab613b89565b613cb481612380565b50565b613cbf613b89565b613cc881613209565b50565b6000613cd5614b7f565b905090565b60006040517f190100000000000000000000000000000000000000000000000000000000000081528360028201528260228201526042812091505092915050565b60008060006041845103613d605760008060006020870151925060408701519150606087015160001a9050613d5288828585614be3565b955095509550505050613d70565b60006002855160001b9250925092505b9250925092565b60008060008573ffffffffffffffffffffffffffffffffffffffff168585604051602401613da6929190617499565b604051602081830303815290604052631626ba7e60e01b6020820180517bffffffffffffffffffffffffffffffffffffffffffffffffffffffff8381831617835250505050604051613df891906174fa565b600060405180830381855afa9150503d8060008114613e33576040519150601f19603f3d011682016040523d82523d6000602084013e613e38565b606091505b5091509150818015613e4c57506020815110155b8015613e905750631626ba7e60e01b7bffffffffffffffffffffffffffffffffffffffffffffffffffffffff191681806020019051810190613e8e9190617182565b145b925050509392505050565b600080613ea66129ce565b9050600081600001600089815260200190815260200160002090508060030160008873ffffffffffffffffffffffffffffffffffffffff1673ffffffffffffffffffffffffffffffffffffffff16815260200190815260200160002060009054906101000a900460ff1615613f5257866040517f71c6af49000000000000000000000000000000000000000000000000000000008152600401613f4991906153aa565b60405180910390fd5b60018160030160008973ffffffffffffffffffffffffffffffffffffffff1673ffffffffffffffffffffffffffffffffffffffff16815260200190815260200160002060006101000a81548160ff02191690831515021790555060006002811115613fc057613fbf61595a565b5b60ff168660ff1603613fec5784816000016000828254613fe09190616a43565b9250508190555061409f565b6001600281111561400057613fff61595a565b5b60ff168660ff160361402c57848160010160008282546140209190616a43565b9250508190555061409e565b60028081111561403f5761403e61595a565b5b60ff168660ff160361406b578481600201600082825461405f9190616a43565b9250508190555061409d565b6040517f06b337c200000000000000000000000000000000000000000000000000000000815260040160405180910390fd5b5b5b849250505095945050505050565b50565b6000600182116140c257819050614248565b600082905060006001905070010000000000000000000000000000000082106140f457608082901c9150604081901b90505b68010000000000000000821061411357604082901c9150602081901b90505b640100000000821061412e57602082901c9150601081901b90505b62010000821061414757601082901c9150600881901b90505b610100821061415f57600882901c9150600481901b90505b6010821061417657600482901c9150600281901b90505b6004821061418657600181901b90505b600181600302901c905060018185816141a2576141a1616ce8565b5b048201901c905060018185816141bb576141ba616ce8565b5b048201901c905060018185816141d4576141d3616ce8565b5b048201901c905060018185816141ed576141ec616ce8565b5b048201901c9050600181858161420657614205616ce8565b5b048201901c9050600181858161421f5761421e616ce8565b5b048201901c905061424181858161423957614238616ce8565b5b048211614cd7565b8103925050505b919050565b60008260005281602060002001905092915050565b60005b818310156142d05760006142798484614ce3565b90508465ffffffffffff1661428e878361424d565b60000160009054906101000a900465ffffffffffff1665ffffffffffff1611156142ba578092506142ca565b6001816142c79190616a43565b93505b50614265565b819050949350505050565b6000808251905060348110156142f55760019150506143be565b60006143048460348403614d09565b90507f2370726f706f7365723d0000000000000000000000000000000000000000000075ffffffffffffffffffffffffffffffffffffffffffff19168175ffffffffffffffffffffffffffffffffffffffffffff19161461436a576001925050506143be565b60008061437b86602a860386614d1a565b915091508115806143b757508673ffffffffffffffffffffffffffffffffffffffff168173ffffffffffffffffffffffffffffffffffffffff16145b9450505050505b92915050565b6000806143cf612453565b90506143e48787878780519060200120611eef565b9150855187511415806143f957508451875114155b80614405575060008751145b1561444e578651855187516040517f447b05d000000000000000000000000000000000000000000000000000000000815260040161444593929190615afa565b60405180910390fd5b600081600101600084815260200190815260200160002060000160149054906101000a900465ffffffffffff1665ffffffffffff16146144d45781614492836111c2565b6000801b6040517f31b75e4d0000000000000000000000000000000000000000000000000000000081526004016144cb93929190616d71565b60405180910390fd5b60006144de61119e565b6144e6611bd6565b65ffffffffffff166144f89190616a43565b90506000614504610ca0565b905060008360010160008681526020019081526020016000209050858160000160006101000a81548173ffffffffffffffffffffffffffffffffffffffff021916908373ffffffffffffffffffffffffffffffffffffffff16021790555061456b83612d23565b8160000160146101000a81548165ffffffffffff021916908365ffffffffffff16021790555061459a82614e31565b81600001601a6101000a81548163ffffffff021916908363ffffffff1602179055507f7d84a6263ae0d98d3329bd7b46bb4e8d6f98cd35a7adb45c274c8b7fd5ebd5e085878c8c8e5167ffffffffffffffff8111156145fc576145fb6153fb565b5b60405190808252806020026020018201604052801561462f57816020015b606081526020019060019003908161461a5790505b508d89898b61463e9190616a43565b8f6040516146549998979695949392919061761d565b60405180910390a15050505095945050505050565b60008151111561467c5780518082602001fd5b6040517fd6bda27500000000000000000000000000000000000000000000000000000000815260040160405180910390fd5b60008060008580549050905060008111156148cb5760006146db876001846146d691906168b5565b61424d565b905060008160000160009054906101000a900465ffffffffffff16905060008260000160069054906101000a900479ffffffffffffffffffffffffffffffffffffffffffffffffffff1690508765ffffffffffff168265ffffffffffff161115614771576040517f2520601d00000000000000000000000000000000000000000000000000000000815260040160405180910390fd5b8765ffffffffffff168265ffffffffffff16036147dc57868360000160066101000a81548179ffffffffffffffffffffffffffffffffffffffffffffffffffff021916908379ffffffffffffffffffffffffffffffffffffffffffffffffffff1602179055506148bc565b8860405180604001604052808a65ffffffffffff1681526020018979ffffffffffffffffffffffffffffffffffffffffffffffffffff168152509080600181540180825580915050600190039060005260206000200160009091909190915060008201518160000160006101000a81548165ffffffffffff021916908365ffffffffffff16021790555060208201518160000160066101000a81548179ffffffffffffffffffffffffffffffffffffffffffffffffffff021916908379ffffffffffffffffffffffffffffffffffffffffffffffffffff16021790555050505b808795509550505050506149b3565b8560405180604001604052808765ffffffffffff1681526020018679ffffffffffffffffffffffffffffffffffffffffffffffffffff168152509080600181540180825580915050600190039060005260206000200160009091909190915060008201518160000160006101000a81548165ffffffffffff021916908365ffffffffffff16021790555060208201518160000160066101000a81548179ffffffffffffffffffffffffffffffffffffffffffffffffffff021916908379ffffffffffffffffffffffffffffffffffffffffffffffffffff160217905550505060008492509250505b935093915050565b6000813060601b6bffffffffffffffffffffffff1916189050919050565b6000806149e46129ce565b90506000816000016000858152602001908152602001600020905080600201548160010154614a139190616a43565b614a24614a1f8661114d565b612061565b111592505050919050565b600080614a3a6129ce565b905060008160000160008581526020019081526020016000209050806000015481600101541192505050919050565b600080614a74612453565b90506000614a8487878787611eef565b9050614ae981614a94600761247b565b614a9e600661247b565b614aa8600261247b565b600180600780811115614abe57614abd61595a565b5b614ac891906176cd565b6002614ad49190617835565b614ade91906168b5565b60001b1818186124a1565b506001826001016000838152602001908152602001600020600001601f6101000a81548160ff0219169083151502179055507f789cf55be980739dad1d0699b93b58e806b51c9d96619bfa8fe0a28abaa7b30c81604051614b4a9190615243565b60405180910390a18092505050949350505050565b6000614b69612a16565b60000160089054906101000a900460ff16905090565b60007f8b73c3c69bb8fe3d512ecc4cf759cc79239f7b179b0ffacaa9a75d522b39400f614baa614e89565b614bb2614f05565b4630604051602001614bc8959493929190617880565b60405160208183030381529060405280519060200120905090565b60008060007f7fffffffffffffffffffffffffffffff5d576e7357a4501ddfe92f46681b20a08460001c1115614c23576000600385925092509250614ccd565b600060018888888860405160008152602001604052604051614c4894939291906178d3565b6020604051602081039080840390855afa158015614c6a573d6000803e3d6000fd5b505050602060405103519050600073ffffffffffffffffffffffffffffffffffffffff168173ffffffffffffffffffffffffffffffffffffffff1603614cbe57600060016000801b93509350935050614ccd565b8060008060001b935093509350505b9450945094915050565b60008115159050919050565b60006002828418614cf49190616d17565b828416614d019190616a43565b905092915050565b600081602001830151905092915050565b6000808451831180614d2b57508284115b15614d3c5760008091509150614e29565b6000600185614d4b9190616a43565b84118015614dc357507f30780000000000000000000000000000000000000000000000000000000000007dffffffffffffffffffffffffffffffffffffffffffffffffffffffffffff1916614da08787614f81565b7dffffffffffffffffffffffffffffffffffffffffffffffffffffffffffff1916145b905060006002614dd4831515614cd7565b614dde9190616ca6565b6028614dea9190616a43565b9050808686614df991906168b5565b03614e1f57600080614e0c898989614f92565b9150915081819550955050505050614e29565b6000809350935050505b935093915050565b600063ffffffff8016821115614e81576020826040517f6dfcc650000000000000000000000000000000000000000000000000000000008152600401614e78929190617953565b60405180910390fd5b819050919050565b600080614e94612f99565b90506000614ea0612fc1565b9050600081511115614ebd57808051906020012092505050614f02565b6000826000015490506000801b8114614edb57809350505050614f02565b7fc5d2460186f7233c927e7db2dcc703c0e500b653ca82273b7bfad8045d85a47093505050505b90565b600080614f10612f99565b90506000614f1c613062565b9050600081511115614f3957808051906020012092505050614f7e565b6000826001015490506000801b8114614f5757809350505050614f7e565b7fc5d2460186f7233c927e7db2dcc703c0e500b653ca82273b7bfad8045d85a47093505050505b90565b600081602001830151905092915050565b60008060008590506000600186614fa99190616a43565b8511801561502157507f30780000000000000000000000000000000000000000000000000000000000007dffffffffffffffffffffffffffffffffffffffffffffffffffffffffffff1916614ffe8388614f81565b7dffffffffffffffffffffffffffffffffffffffffffffffffffffffffffff1916145b905060006002615032831515614cd7565b61503c9190616ca6565b9050600080828961504d9190616a43565b90505b878110156150b557600061506c6150678784614f81565b6150ca565b9050600f8160ff16111561508c57600080975097505050505050506150c2565b6010836150999190616ca6565b92508060ff168301925050806150ae90616683565b9050615050565b5060018195509550505050505b935093915050565b6000808260f81c9050602f8160ff161180156150e95750603a8160ff16105b156150f957603081039050615151565b60608160ff1611801561510f575060678160ff16105b1561511f57605781039050615150565b60408160ff16118015615135575060478160ff16105b156151455760378103905061514f565b60ff915050615156565b5b5b809150505b919050565b6000604051905090565b600080fd5b600080fd5b60007fffffffff0000000000000000000000000000000000000000000000000000000082169050919050565b6151a48161516f565b81146151af57600080fd5b50565b6000813590506151c18161519b565b92915050565b6000602082840312156151dd576151dc615165565b5b60006151eb848285016151b2565b91505092915050565b60008115159050919050565b615209816151f4565b82525050565b60006020820190506152246000830184615200565b92915050565b6000819050919050565b61523d8161522a565b82525050565b60006020820190506152586000830184615234565b92915050565b6152678161522a565b811461527257600080fd5b50565b6000813590506152848161525e565b92915050565b6000602082840312156152a05761529f615165565b5b60006152ae84828501615275565b91505092915050565b600081519050919050565b600082825260208201905092915050565b60005b838110156152f15780820151818401526020810190506152d6565b60008484015250505050565b6000601f19601f8301169050919050565b6000615319826152b7565b61532381856152c2565b93506153338185602086016152d3565b61533c816152fd565b840191505092915050565b60006020820190508181036000830152615361818461530e565b905092915050565b600073ffffffffffffffffffffffffffffffffffffffff82169050919050565b600061539482615369565b9050919050565b6153a481615389565b82525050565b60006020820190506153bf600083018461539b565b92915050565b6153ce81615389565b81146153d957600080fd5b50565b6000813590506153eb816153c5565b92915050565b600080fd5b600080fd5b7f4e487b7100000000000000000000000000000000000000000000000000000000600052604160045260246000fd5b615433826152fd565b810181811067ffffffffffffffff82111715615452576154516153fb565b5b80604052505050565b600061546561515b565b9050615471828261542a565b919050565b600067ffffffffffffffff821115615491576154906153fb565b5b61549a826152fd565b9050602081019050919050565b82818337600083830152505050565b60006154c96154c484615476565b61545b565b9050828152602081018484840111156154e5576154e46153f6565b5b6154f08482856154a7565b509392505050565b600082601f83011261550d5761550c6153f1565b5b813561551d8482602086016154b6565b91505092915050565b600080600080608085870312156155405761553f615165565b5b600061554e878288016153dc565b945050602061555f878288016153dc565b935050604061557087828801615275565b925050606085013567ffffffffffffffff8111156155915761559061516a565b5b61559d878288016154f8565b91505092959194509250565b6155b28161516f565b82525050565b60006020820190506155cd60008301846155a9565b92915050565b600067ffffffffffffffff8211156155ee576155ed6153fb565b5b602082029050602081019050919050565b600080fd5b6000615617615612846155d3565b61545b565b9050808382526020820190506020840283018581111561563a576156396155ff565b5b835b81811015615663578061564f88826153dc565b84526020840193505060208101905061563c565b5050509392505050565b600082601f830112615682576156816153f1565b5b8135615692848260208601615604565b91505092915050565b600067ffffffffffffffff8211156156b6576156b56153fb565b5b602082029050602081019050919050565b60006156da6156d58461569b565b61545b565b905080838252602082019050602084028301858111156156fd576156fc6155ff565b5b835b8181101561572657806157128882615275565b8452602084019350506020810190506156ff565b5050509392505050565b600082601f830112615745576157446153f1565b5b81356157558482602086016156c7565b91505092915050565b600067ffffffffffffffff821115615779576157786153fb565b5b602082029050602081019050919050565b600061579d6157988461575e565b61545b565b905080838252602082019050602084028301858111156157c0576157bf6155ff565b5b835b8181101561580757803567ffffffffffffffff8111156157e5576157e46153f1565b5b8086016157f289826154f8565b855260208501945050506020810190506157c2565b5050509392505050565b600082601f830112615826576158256153f1565b5b813561583684826020860161578a565b91505092915050565b6000819050919050565b6158528161583f565b811461585d57600080fd5b50565b60008135905061586f81615849565b92915050565b6000806000806080858703121561588f5761588e615165565b5b600085013567ffffffffffffffff8111156158ad576158ac61516a565b5b6158b98782880161566d565b945050602085013567ffffffffffffffff8111156158da576158d961516a565b5b6158e687828801615730565b935050604085013567ffffffffffffffff8111156159075761590661516a565b5b61591387828801615811565b925050606061592487828801615860565b91505092959194509250565b6159398161583f565b82525050565b60006020820190506159546000830184615930565b92915050565b7f4e487b7100000000000000000000000000000000000000000000000000000000600052602160045260246000fd5b6008811061599a5761599961595a565b5b50565b60008190506159ab82615989565b919050565b60006159bb8261599d565b9050919050565b6159cb816159b0565b82525050565b60006020820190506159e660008301846159c2565b92915050565b60008060408385031215615a0357615a02615165565b5b6000615a1185828601615275565b9250506020615a22858286016153dc565b9150509250929050565b6000615a3782615389565b9050919050565b615a4781615a2c565b8114615a5257600080fd5b50565b600081359050615a6481615a3e565b92915050565b6000615a7582615369565b9050919050565b6000615a8782615a6a565b9050919050565b615a9781615a7c565b8114615aa257600080fd5b50565b600081359050615ab481615a8e565b92915050565b60008060408385031215615ad157615ad0615165565b5b6000615adf85828601615a55565b9250506020615af085828601615aa5565b9150509250929050565b6000606082019050615b0f6000830186615234565b615b1c6020830185615234565b615b296040830184615234565b949350505050565b600060ff82169050919050565b615b4781615b31565b8114615b5257600080fd5b50565b600081359050615b6481615b3e565b92915050565b60008060408385031215615b8157615b80615165565b5b6000615b8f85828601615275565b9250506020615ba085828601615b55565b9150509250929050565b600080fd5b60008083601f840112615bc557615bc46153f1565b5b8235905067ffffffffffffffff811115615be257615be1615baa565b5b602083019150836001820283011115615bfe57615bfd6155ff565b5b9250929050565b600080600080600080600060c0888a031215615c2457615c23615165565b5b6000615c328a828b01615275565b9750506020615c438a828b01615b55565b9650506040615c548a828b016153dc565b955050606088013567ffffffffffffffff811115615c7557615c7461516a565b5b615c818a828b01615baf565b9450945050608088013567ffffffffffffffff811115615ca457615ca361516a565b5b615cb08a828b016154f8565b92505060a088013567ffffffffffffffff811115615cd157615cd061516a565b5b615cdd8a828b016154f8565b91505092959891949750929550565b600080600080600060808688031215615d0857615d07615165565b5b6000615d1688828901615275565b9550506020615d2788828901615b55565b945050604086013567ffffffffffffffff811115615d4857615d4761516a565b5b615d5488828901615baf565b9350935050606086013567ffffffffffffffff811115615d7757615d7661516a565b5b615d83888289016154f8565b9150509295509295909350565b60008060008060608587031215615daa57615da9615165565b5b6000615db887828801615275565b9450506020615dc987828801615b55565b935050604085013567ffffffffffffffff811115615dea57615de961516a565b5b615df687828801615baf565b925092505092959194509250565b600067ffffffffffffffff821115615e1f57615e1e6153fb565b5b615e28826152fd565b9050602081019050919050565b6000615e48615e4384615e04565b61545b565b905082815260208101848484011115615e6457615e636153f6565b5b615e6f8482856154a7565b509392505050565b600082601f830112615e8c57615e8b6153f1565b5b8135615e9c848260208601615e35565b91505092915050565b60008060008060808587031215615ebf57615ebe615165565b5b600085013567ffffffffffffffff811115615edd57615edc61516a565b5b615ee98782880161566d565b945050602085013567ffffffffffffffff811115615f0a57615f0961516a565b5b615f1687828801615730565b935050604085013567ffffffffffffffff811115615f3757615f3661516a565b5b615f4387828801615811565b925050606085013567ffffffffffffffff811115615f6457615f6361516a565b5b615f7087828801615e77565b91505092959194509250565b600060208284031215615f9257615f91615165565b5b6000615fa0848285016153dc565b91505092915050565b60007fff0000000000000000000000000000000000000000000000000000000000000082169050919050565b615fde81615fa9565b82525050565b600081519050919050565b600082825260208201905092915050565b6000819050602082019050919050565b6160198161522a565b82525050565b600061602b8383616010565b60208301905092915050565b6000602082019050919050565b600061604f82615fe4565b6160598185615fef565b935061606483616000565b8060005b8381101561609557815161607c888261601f565b975061608783616037565b925050600181019050616068565b5085935050505092915050565b600060e0820190506160b7600083018a615fd5565b81810360208301526160c9818961530e565b905081810360408301526160dd818861530e565b90506160ec6060830187615234565b6160f9608083018661539b565b61610660a0830185615930565b81810360c08301526161188184616044565b905098975050505050505050565b600080600080608085870312156161405761613f615165565b5b600061614e87828801615275565b945050602061615f87828801615b55565b9350506040616170878288016153dc565b925050606085013567ffffffffffffffff8111156161915761619061516a565b5b61619d878288016154f8565b91505092959194509250565b600065ffffffffffff82169050919050565b6161c4816161a9565b82525050565b60006020820190506161df60008301846161bb565b92915050565b6000806000606084860312156161fe576161fd615165565b5b600061620c868287016153dc565b935050602061621d86828701615275565b925050604084013567ffffffffffffffff81111561623e5761623d61516a565b5b61624a868287016154f8565b9150509250925092565b60006020828403121561626a57616269615165565b5b600061627884828501615aa5565b91505092915050565b600080600080600060a0868803121561629d5761629c615165565b5b60006162ab888289016153dc565b95505060206162bc888289016153dc565b945050604086013567ffffffffffffffff8111156162dd576162dc61516a565b5b6162e988828901615730565b935050606086013567ffffffffffffffff81111561630a5761630961516a565b5b61631688828901615730565b925050608086013567ffffffffffffffff8111156163375761633661516a565b5b616343888289016154f8565b9150509295509295909350565b60008083601f840112616366576163656153f1565b5b8235905067ffffffffffffffff81111561638357616382615baa565b5b60208301915083600182028301111561639f5761639e6155ff565b5b9250929050565b600080600080606085870312156163c0576163bf615165565b5b60006163ce878288016153dc565b94505060206163df87828801615275565b935050604085013567ffffffffffffffff811115616400576163ff61516a565b5b61640c87828801616350565b925092505092959194509250565b6000806040838503121561643157616430615165565b5b600061643f858286016153dc565b925050602061645085828601615275565b9150509250929050565b600080600080600060a0868803121561647657616475615165565b5b6000616484888289016153dc565b9550506020616495888289016153dc565b94505060406164a688828901615275565b93505060606164b788828901615275565b925050608086013567ffffffffffffffff8111156164d8576164d761516a565b5b6164e4888289016154f8565b9150509295509295909350565b6000819050919050565b600061651661651161650c84615369565b6164f1565b615369565b9050919050565b6000616528826164fb565b9050919050565b600061653a8261651d565b9050919050565b61654a8161652f565b82525050565b60006020820190506165656000830184616541565b92915050565b7f4e487b7100000000000000000000000000000000000000000000000000000000600052602260045260246000fd5b600060028204905060018216806165b257607f821691505b6020821081036165c5576165c461656b565b5b50919050565b60006165e66165e16165dc846161a9565b6164f1565b61522a565b9050919050565b6165f6816165cb565b82525050565b60006040820190506166116000830185615234565b61661e60208301846165ed565b9392505050565b7f4e487b7100000000000000000000000000000000000000000000000000000000600052603260045260246000fd5b7f4e487b7100000000000000000000000000000000000000000000000000000000600052601160045260246000fd5b600061668e8261522a565b91507fffffffffffffffffffffffffffffffffffffffffffffffffffffffffffffffff82036166c0576166bf616654565b5b600182019050919050565b6000819050919050565b600067ffffffffffffffff82169050919050565b60006167046166ff6166fa846166cb565b6164f1565b6166d5565b9050919050565b616714816166e9565b82525050565b600060208201905061672f600083018461670b565b92915050565b600061674861674384615e04565b61545b565b905082815260208101848484011115616764576167636153f6565b5b61676f8482856152d3565b509392505050565b600082601f83011261678c5761678b6153f1565b5b815161679c848260208601616735565b91505092915050565b6000602082840312156167bb576167ba615165565b5b600082015167ffffffffffffffff8111156167d9576167d861516a565b5b6167e584828501616777565b91505092915050565b600081905092915050565b600061680583856167ee565b93506168128385846154a7565b82840190509392505050565b600061682b8284866167f9565b91508190509392505050565b61684081615b31565b82525050565b600060e08201905061685b600083018a615930565b6168686020830189615234565b6168756040830188616837565b616882606083018761539b565b61688f6080830186615234565b61689c60a0830185615930565b6168a960c0830184615930565b98975050505050505050565b60006168c08261522a565b91506168cb8361522a565b92508282039050818111156168e3576168e2616654565b5b92915050565b7f4549503731323a20556e696e697469616c697a65640000000000000000000000600082015250565b600061691f6015836152c2565b915061692a826168e9565b602082019050919050565b6000602082019050818103600083015261694e81616912565b9050919050565b600060a08201905061696a6000830188615930565b6169776020830187615234565b6169846040830186616837565b616991606083018561539b565b61699e6080830184615234565b9695505050505050565b6169b1816161a9565b81146169bc57600080fd5b50565b6000815190506169ce816169a8565b92915050565b6000602082840312156169ea576169e9615165565b5b60006169f8848285016169bf565b91505092915050565b600081519050616a108161525e565b92915050565b600060208284031215616a2c57616a2b615165565b5b6000616a3a84828501616a01565b91505092915050565b6000616a4e8261522a565b9150616a598361522a565b9250828201905080821115616a7157616a70616654565b5b92915050565b600081519050919050565b600082825260208201905092915050565b6000819050602082019050919050565b616aac81615389565b82525050565b6000616abe8383616aa3565b60208301905092915050565b6000602082019050919050565b6000616ae282616a77565b616aec8185616a82565b9350616af783616a93565b8060005b83811015616b28578151616b0f8882616ab2565b9750616b1a83616aca565b925050600181019050616afb565b5085935050505092915050565b600081519050919050565b600082825260208201905092915050565b6000819050602082019050919050565b600081519050919050565b600082825260208201905092915050565b6000616b8882616b61565b616b928185616b6c565b9350616ba28185602086016152d3565b616bab816152fd565b840191505092915050565b6000616bc28383616b7d565b905092915050565b6000602082019050919050565b6000616be282616b35565b616bec8185616b40565b935083602082028501616bfe85616b51565b8060005b85811015616c3a5784840389528151616c1b8582616bb6565b9450616c2683616bca565b925060208a01995050600181019050616c02565b50829750879550505050505092915050565b60006080820190508181036000830152616c668187616ad7565b90508181036020830152616c7a8186616044565b90508181036040830152616c8e8185616bd7565b9050616c9d6060830184615930565b95945050505050565b6000616cb18261522a565b9150616cbc8361522a565b9250828202616cca8161522a565b91508282048414831517616ce157616ce0616654565b5b5092915050565b7f4e487b7100000000000000000000000000000000000000000000000000000000600052601260045260246000fd5b6000616d228261522a565b9150616d2d8361522a565b925082616d3d57616d3c616ce8565b5b828204905092915050565b6000604082019050616d5d6000830185615234565b616d6a6020830184615234565b9392505050565b6000606082019050616d866000830186615234565b616d9360208301856159c2565b616da06040830184615930565b949350505050565b616db1816151f4565b8114616dbc57600080fd5b50565b600081519050616dce81616da8565b92915050565b600060208284031215616dea57616de9615165565b5b6000616df884828501616dbf565b91505092915050565b6000608082019050616e166000830187615234565b616e236020830186616837565b616e306040830185615234565b8181036060830152616e42818461530e565b905095945050505050565b600082825260208201905092915050565b6000616e6982616b61565b616e738185616e4d565b9350616e838185602086016152d3565b616e8c816152fd565b840191505092915050565b600060a082019050616eac6000830188615234565b616eb96020830187616837565b616ec66040830186615234565b8181036060830152616ed8818561530e565b90508181036080830152616eec8184616e5e565b90509695505050505050565b6000819050919050565b6000616f1d616f18616f1384616ef8565b6164f1565b615b31565b9050919050565b616f2d81616f02565b82525050565b6000604082019050616f486000830185616f24565b616f556020830184615234565b9392505050565b6000616f67826161a9565b9150616f72836161a9565b9250828203905065ffffffffffff811115616f9057616f8f616654565b5b92915050565b6000606082019050616fab600083018661539b565b616fb86020830185615234565b616fc56040830184615234565b949350505050565b6000604082019050616fe2600083018561539b565b616fef6020830184615234565b9392505050565b600060408201905061700b600083018561539b565b617018602083018461539b565b9392505050565b600061702a826161a9565b9150617035836161a9565b9250828201905065ffffffffffff81111561705357617052616654565b5b92915050565b6000819050919050565b600061707e61707961707484617059565b6164f1565b615b31565b9050919050565b61708e81617063565b82525050565b60006040820190506170a96000830185617085565b6170b66020830184615234565b9392505050565b6000819050919050565b60008160001b9050919050565b60006170ef6170ea6170e5846170bd565b6170c7565b61583f565b9050919050565b6170ff816170d4565b82525050565b600060a082019050818103600083015261711f8188616ad7565b905081810360208301526171338187616044565b905081810360408301526171478186616bd7565b905061715660608301856170f6565b6171636080830184615930565b9695505050505050565b60008151905061717c81615849565b92915050565b60006020828403121561719857617197615165565b5b60006171a68482850161716d565b91505092915050565b600060c08201905081810360008301526171c98189616ad7565b905081810360208301526171dd8188616044565b905081810360408301526171f18187616bd7565b905061720060608301866170f6565b61720d6080830185615930565b61721a60a0830184615234565b979650505050505050565b60008190508160005260206000209050919050565b60006020601f8301049050919050565b600082821b905092915050565b6000600883026172877fffffffffffffffffffffffffffffffffffffffffffffffffffffffffffffffff8261724a565b617291868361724a565b95508019841693508086168417925050509392505050565b60006172c46172bf6172ba8461522a565b6164f1565b61522a565b9050919050565b6000819050919050565b6172de836172a9565b6172f26172ea826172cb565b848454617257565b825550505050565b600090565b6173076172fa565b6173128184846172d5565b505050565b5b818110156173365761732b6000826172ff565b600181019050617318565b5050565b601f82111561737b5761734c81617225565b6173558461723a565b81016020851015617364578190505b6173786173708561723a565b830182617317565b50505b505050565b600082821c905092915050565b600061739e60001984600802617380565b1980831691505092915050565b60006173b7838361738d565b9150826002028217905092915050565b6173d0826152b7565b67ffffffffffffffff8111156173e9576173e86153fb565b5b6173f3825461659a565b6173fe82828561733a565b600060209050601f831160018114617431576000841561741f578287015190505b61742985826173ab565b865550617491565b601f19841661743f86617225565b60005b8281101561746757848901518255600182019150602085019450602081019050617442565b868310156174845784890151617480601f89168261738d565b8355505b6001600288020188555050505b505050505050565b60006040820190506174ae6000830185615930565b81810360208301526174c08184616e5e565b90509392505050565b60006174d482616b61565b6174de81856167ee565b93506174ee8185602086016152d3565b80840191505092915050565b600061750682846174c9565b915081905092915050565b600081519050919050565b600082825260208201905092915050565b6000819050602082019050919050565b600082825260208201905092915050565b6000617559826152b7565b617563818561753d565b93506175738185602086016152d3565b61757c816152fd565b840191505092915050565b6000617593838361754e565b905092915050565b6000602082019050919050565b60006175b382617511565b6175bd818561751c565b9350836020820285016175cf8561752d565b8060005b8581101561760b57848403895281516175ec8582617587565b94506175f78361759b565b925060208a019950506001810190506175d3565b50829750879550505050505092915050565b600061012082019050617633600083018c615234565b617640602083018b61539b565b8181036040830152617652818a616ad7565b905081810360608301526176668189616044565b9050818103608083015261767a81886175a8565b905081810360a083015261768e8187616bd7565b905061769d60c0830186615234565b6176aa60e0830185615234565b8181036101008301526176bd818461530e565b90509a9950505050505050505050565b60006176d882615b31565b91506176e383615b31565b9250828201905060ff8111156176fc576176fb616654565b5b92915050565b60008160011c9050919050565b6000808291508390505b60018511156177595780860481111561773557617734616654565b5b60018516156177445780820291505b808102905061775285617702565b9450617719565b94509492505050565b600082617772576001905061782e565b81617780576000905061782e565b816001811461779657600281146177a0576177cf565b600191505061782e565b60ff8411156177b2576177b1616654565b5b8360020a9150848211156177c9576177c8616654565b5b5061782e565b5060208310610133831016604e8410600b84101617156178045782820a9050838111156177ff576177fe616654565b5b61782e565b617811848484600161770f565b9250905081840481111561782857617827616654565b5b81810290505b9392505050565b60006178408261522a565b915061784b83615b31565b92506178787fffffffffffffffffffffffffffffffffffffffffffffffffffffffffffffffff8484617762565b905092915050565b600060a0820190506178956000830188615930565b6178a26020830187615930565b6178af6040830186615930565b6178bc6060830185615234565b6178c9608083018461539b565b9695505050505050565b60006080820190506178e86000830187615930565b6178f56020830186616837565b6179026040830185615930565b61790f6060830184615930565b95945050505050565b6000819050919050565b600061793d61793861793384617918565b6164f1565b615b31565b9050919050565b61794d81617922565b82525050565b60006040820190506179686000830185617944565b6179756020830184615234565b939250505056fea2646970667358221220950c942bd70dae742c2a0e45f98e9f93b7633341f5b857d3aa5112aacbf0235964736f6c63430008140033",
    "linkReferences": {},
    "deployedLinkReferences": {}
}